{
	"BLOQUE 1 - Conceptos básicos de Solidity/Tema 3 - Tipos de variables y operadores/enum.sol": {
		"Ejemplos_enumeraciones": {
			"abi": [
				{
					"inputs": [],
					"name": "Estado",
					"outputs": [
						{
							"internalType": "enum Ejemplos_enumeraciones.estado",
							"name": "",
							"type": "uint8"
						}
					],
					"stateMutability": "view",
					"type": "function"
				},
				{
					"inputs": [],
					"name": "abajo",
					"outputs": [],
					"stateMutability": "nonpayable",
					"type": "function"
				},
				{
					"inputs": [],
					"name": "arriba",
					"outputs": [],
					"stateMutability": "nonpayable",
					"type": "function"
				},
				{
					"inputs": [],
					"name": "derecha",
					"outputs": [],
					"stateMutability": "nonpayable",
					"type": "function"
				},
				{
					"inputs": [],
					"name": "encender",
					"outputs": [],
					"stateMutability": "nonpayable",
					"type": "function"
				},
				{
					"inputs": [
						{
							"internalType": "uint256",
							"name": "_k",
							"type": "uint256"
						}
					],
					"name": "fijarDirecciones",
					"outputs": [],
					"stateMutability": "nonpayable",
					"type": "function"
				},
				{
					"inputs": [
						{
							"internalType": "uint256",
							"name": "_k",
							"type": "uint256"
						}
					],
					"name": "fijarEstado",
					"outputs": [],
					"stateMutability": "nonpayable",
					"type": "function"
				},
				{
					"inputs": [],
					"name": "izquierda",
					"outputs": [],
					"stateMutability": "nonpayable",
					"type": "function"
				}
			],
			"devdoc": {
				"methods": {}
			},
			"evm": {
				"assembly": "    /* \"BLOQUE 1 - Conceptos básicos de Solidity/Tema 3 - Tipos de variables y operadores/enum.sol\":60:1057  contract Ejemplos_enumeraciones{\r... */\n  mstore(0x40, 0x80)\n    /* \"BLOQUE 1 - Conceptos básicos de Solidity/Tema 3 - Tipos de variables y operadores/enum.sol\":613:631  direcciones.ARRIBA */\n  0x00\n    /* \"BLOQUE 1 - Conceptos básicos de Solidity/Tema 3 - Tipos de variables y operadores/enum.sol\":590:631  direcciones direccion =direcciones.ARRIBA */\n  dup1\n  exp(0x0100, 0x01)\n  dup2\n  sload\n  dup2\n  0xff\n  mul\n  not\n  and\n  swap1\n  dup4\n  0x03\n  dup2\n  gt\n  iszero\n  tag_1\n  jumpi\n  invalid\ntag_1:\n  mul\n  or\n  swap1\n  sstore\n  pop\n    /* \"BLOQUE 1 - Conceptos básicos de Solidity/Tema 3 - Tipos de variables y operadores/enum.sol\":60:1057  contract Ejemplos_enumeraciones{\r... */\n  callvalue\n  dup1\n  iszero\n  tag_2\n  jumpi\n  0x00\n  dup1\n  revert\ntag_2:\n  pop\n  dataSize(sub_0)\n  dup1\n  dataOffset(sub_0)\n  0x00\n  codecopy\n  0x00\n  return\nstop\n\nsub_0: assembly {\n        /* \"BLOQUE 1 - Conceptos básicos de Solidity/Tema 3 - Tipos de variables y operadores/enum.sol\":60:1057  contract Ejemplos_enumeraciones{\r... */\n      mstore(0x40, 0x80)\n      callvalue\n      dup1\n      iszero\n      tag_1\n      jumpi\n      0x00\n      dup1\n      revert\n    tag_1:\n      pop\n      jumpi(tag_2, lt(calldatasize, 0x04))\n      shr(0xe0, calldataload(0x00))\n      dup1\n      0xdaf4343f\n      gt\n      tag_11\n      jumpi\n      dup1\n      0xdaf4343f\n      eq\n      tag_7\n      jumpi\n      dup1\n      0xe0be4a2e\n      eq\n      tag_8\n      jumpi\n      dup1\n      0xe7260f9a\n      eq\n      tag_9\n      jumpi\n      dup1\n      0xe9073c33\n      eq\n      tag_10\n      jumpi\n      jump(tag_2)\n    tag_11:\n      dup1\n      0x8a60839f\n      eq\n      tag_3\n      jumpi\n      dup1\n      0x943fad7f\n      eq\n      tag_4\n      jumpi\n      dup1\n      0xb1e92247\n      eq\n      tag_5\n      jumpi\n      dup1\n      0xb46e8d1a\n      eq\n      tag_6\n      jumpi\n    tag_2:\n      0x00\n      dup1\n      revert\n        /* \"BLOQUE 1 - Conceptos básicos de Solidity/Tema 3 - Tipos de variables y operadores/enum.sol\":798:872  function derecha() public{\r... */\n    tag_3:\n      tag_12\n      tag_13\n      jump\t// in\n    tag_12:\n      stop\n        /* \"BLOQUE 1 - Conceptos básicos de Solidity/Tema 3 - Tipos de variables y operadores/enum.sol\":880:958  function izquierda() public{\r... */\n    tag_4:\n      tag_14\n      tag_15\n      jump\t// in\n    tag_14:\n      stop\n        /* \"BLOQUE 1 - Conceptos básicos de Solidity/Tema 3 - Tipos de variables y operadores/enum.sol\":966:1052  function fijarDirecciones(uint _k) public{\r... */\n    tag_5:\n      tag_16\n      0x04\n      dup1\n      calldatasize\n      sub\n      0x20\n      dup2\n      lt\n      iszero\n      tag_17\n      jumpi\n      0x00\n      dup1\n      revert\n    tag_17:\n      dup2\n      add\n      swap1\n      dup1\n      dup1\n      calldataload\n      swap1\n      0x20\n      add\n      swap1\n      swap3\n      swap2\n      swap1\n      pop\n      pop\n      pop\n      tag_18\n      jump\t// in\n    tag_16:\n      stop\n        /* \"BLOQUE 1 - Conceptos básicos de Solidity/Tema 3 - Tipos de variables y operadores/enum.sol\":369:445  function Estado() public view returns(estado){\r... */\n    tag_6:\n      tag_19\n      tag_20\n      jump\t// in\n    tag_19:\n      mload(0x40)\n      dup1\n      dup3\n      0x01\n      dup2\n      gt\n      iszero\n      tag_21\n      jumpi\n      invalid\n    tag_21:\n      0xff\n      and\n      dup2\n      mstore\n      0x20\n      add\n      swap2\n      pop\n      pop\n      mload(0x40)\n      dup1\n      swap2\n      sub\n      swap1\n      return\n        /* \"BLOQUE 1 - Conceptos básicos de Solidity/Tema 3 - Tipos de variables y operadores/enum.sol\":720:790  function abajo() public{\r... */\n    tag_7:\n      tag_22\n      tag_23\n      jump\t// in\n    tag_22:\n      stop\n        /* \"BLOQUE 1 - Conceptos básicos de Solidity/Tema 3 - Tipos de variables y operadores/enum.sol\":288:361  function fijarEstado(uint _k) public{\r... */\n    tag_8:\n      tag_24\n      0x04\n      dup1\n      calldatasize\n      sub\n      0x20\n      dup2\n      lt\n      iszero\n      tag_25\n      jumpi\n      0x00\n      dup1\n      revert\n    tag_25:\n      dup2\n      add\n      swap1\n      dup1\n      dup1\n      calldataload\n      swap1\n      0x20\n      add\n      swap1\n      swap3\n      swap2\n      swap1\n      pop\n      pop\n      pop\n      tag_26\n      jump\t// in\n    tag_24:\n      stop\n        /* \"BLOQUE 1 - Conceptos básicos de Solidity/Tema 3 - Tipos de variables y operadores/enum.sol\":640:712  function arriba() public{\r... */\n    tag_9:\n      tag_27\n      tag_28\n      jump\t// in\n    tag_27:\n      stop\n        /* \"BLOQUE 1 - Conceptos básicos de Solidity/Tema 3 - Tipos de variables y operadores/enum.sol\":218:280  function encender() public{\r... */\n    tag_10:\n      tag_29\n      tag_30\n      jump\t// in\n    tag_29:\n      stop\n        /* \"BLOQUE 1 - Conceptos básicos de Solidity/Tema 3 - Tipos de variables y operadores/enum.sol\":798:872  function derecha() public{\r... */\n    tag_13:\n        /* \"BLOQUE 1 - Conceptos básicos de Solidity/Tema 3 - Tipos de variables y operadores/enum.sol\":845:864  direcciones.DERECHA */\n      0x02\n        /* \"BLOQUE 1 - Conceptos básicos de Solidity/Tema 3 - Tipos de variables y operadores/enum.sol\":834:843  direccion */\n      0x00\n      0x01\n        /* \"BLOQUE 1 - Conceptos básicos de Solidity/Tema 3 - Tipos de variables y operadores/enum.sol\":834:864  direccion =direcciones.DERECHA */\n      0x0100\n      exp\n      dup2\n      sload\n      dup2\n      0xff\n      mul\n      not\n      and\n      swap1\n      dup4\n      0x03\n      dup2\n      gt\n      iszero\n      tag_32\n      jumpi\n      invalid\n    tag_32:\n      mul\n      or\n      swap1\n      sstore\n      pop\n        /* \"BLOQUE 1 - Conceptos básicos de Solidity/Tema 3 - Tipos de variables y operadores/enum.sol\":798:872  function derecha() public{\r... */\n      jump\t// out\n        /* \"BLOQUE 1 - Conceptos básicos de Solidity/Tema 3 - Tipos de variables y operadores/enum.sol\":880:958  function izquierda() public{\r... */\n    tag_15:\n        /* \"BLOQUE 1 - Conceptos básicos de Solidity/Tema 3 - Tipos de variables y operadores/enum.sol\":929:950  direcciones.IZQUIERDA */\n      0x03\n        /* \"BLOQUE 1 - Conceptos básicos de Solidity/Tema 3 - Tipos de variables y operadores/enum.sol\":918:927  direccion */\n      0x00\n      0x01\n        /* \"BLOQUE 1 - Conceptos básicos de Solidity/Tema 3 - Tipos de variables y operadores/enum.sol\":918:950  direccion =direcciones.IZQUIERDA */\n      0x0100\n      exp\n      dup2\n      sload\n      dup2\n      0xff\n      mul\n      not\n      and\n      swap1\n      dup4\n      0x03\n      dup2\n      gt\n      iszero\n      tag_34\n      jumpi\n      invalid\n    tag_34:\n      mul\n      or\n      swap1\n      sstore\n      pop\n        /* \"BLOQUE 1 - Conceptos básicos de Solidity/Tema 3 - Tipos de variables y operadores/enum.sol\":880:958  function izquierda() public{\r... */\n      jump\t// out\n        /* \"BLOQUE 1 - Conceptos básicos de Solidity/Tema 3 - Tipos de variables y operadores/enum.sol\":966:1052  function fijarDirecciones(uint _k) public{\r... */\n    tag_18:\n        /* \"BLOQUE 1 - Conceptos básicos de Solidity/Tema 3 - Tipos de variables y operadores/enum.sol\":1041:1043  _k */\n      dup1\n        /* \"BLOQUE 1 - Conceptos básicos de Solidity/Tema 3 - Tipos de variables y operadores/enum.sol\":1029:1044  direcciones(_k) */\n      0x03\n      dup2\n      gt\n      iszero\n      tag_36\n      jumpi\n      invalid\n    tag_36:\n        /* \"BLOQUE 1 - Conceptos básicos de Solidity/Tema 3 - Tipos de variables y operadores/enum.sol\":1018:1027  direccion */\n      0x00\n      0x01\n        /* \"BLOQUE 1 - Conceptos básicos de Solidity/Tema 3 - Tipos de variables y operadores/enum.sol\":1018:1044  direccion =direcciones(_k) */\n      0x0100\n      exp\n      dup2\n      sload\n      dup2\n      0xff\n      mul\n      not\n      and\n      swap1\n      dup4\n      0x03\n      dup2\n      gt\n      iszero\n      tag_37\n      jumpi\n      invalid\n    tag_37:\n      mul\n      or\n      swap1\n      sstore\n      pop\n        /* \"BLOQUE 1 - Conceptos básicos de Solidity/Tema 3 - Tipos de variables y operadores/enum.sol\":966:1052  function fijarDirecciones(uint _k) public{\r... */\n      pop\n      jump\t// out\n        /* \"BLOQUE 1 - Conceptos básicos de Solidity/Tema 3 - Tipos de variables y operadores/enum.sol\":369:445  function Estado() public view returns(estado){\r... */\n    tag_20:\n        /* \"BLOQUE 1 - Conceptos básicos de Solidity/Tema 3 - Tipos de variables y operadores/enum.sol\":407:413  estado */\n      0x00\n        /* \"BLOQUE 1 - Conceptos básicos de Solidity/Tema 3 - Tipos de variables y operadores/enum.sol\":432:437  state */\n      dup1\n      0x00\n      swap1\n      sload\n      swap1\n      0x0100\n      exp\n      swap1\n      div\n      0xff\n      and\n        /* \"BLOQUE 1 - Conceptos básicos de Solidity/Tema 3 - Tipos de variables y operadores/enum.sol\":425:437  return state */\n      swap1\n      pop\n        /* \"BLOQUE 1 - Conceptos básicos de Solidity/Tema 3 - Tipos de variables y operadores/enum.sol\":369:445  function Estado() public view returns(estado){\r... */\n      swap1\n      jump\t// out\n        /* \"BLOQUE 1 - Conceptos básicos de Solidity/Tema 3 - Tipos de variables y operadores/enum.sol\":720:790  function abajo() public{\r... */\n    tag_23:\n        /* \"BLOQUE 1 - Conceptos básicos de Solidity/Tema 3 - Tipos de variables y operadores/enum.sol\":765:782  direcciones.ABAJO */\n      0x01\n        /* \"BLOQUE 1 - Conceptos básicos de Solidity/Tema 3 - Tipos de variables y operadores/enum.sol\":754:763  direccion */\n      0x00\n      0x01\n        /* \"BLOQUE 1 - Conceptos básicos de Solidity/Tema 3 - Tipos de variables y operadores/enum.sol\":754:782  direccion =direcciones.ABAJO */\n      0x0100\n      exp\n      dup2\n      sload\n      dup2\n      0xff\n      mul\n      not\n      and\n      swap1\n      dup4\n      0x03\n      dup2\n      gt\n      iszero\n      tag_40\n      jumpi\n      invalid\n    tag_40:\n      mul\n      or\n      swap1\n      sstore\n      pop\n        /* \"BLOQUE 1 - Conceptos básicos de Solidity/Tema 3 - Tipos de variables y operadores/enum.sol\":720:790  function abajo() public{\r... */\n      jump\t// out\n        /* \"BLOQUE 1 - Conceptos básicos de Solidity/Tema 3 - Tipos de variables y operadores/enum.sol\":288:361  function fijarEstado(uint _k) public{\r... */\n    tag_26:\n        /* \"BLOQUE 1 - Conceptos básicos de Solidity/Tema 3 - Tipos de variables y operadores/enum.sol\":350:352  _k */\n      dup1\n        /* \"BLOQUE 1 - Conceptos básicos de Solidity/Tema 3 - Tipos de variables y operadores/enum.sol\":343:353  estado(_k) */\n      0x01\n      dup2\n      gt\n      iszero\n      tag_42\n      jumpi\n      invalid\n    tag_42:\n        /* \"BLOQUE 1 - Conceptos básicos de Solidity/Tema 3 - Tipos de variables y operadores/enum.sol\":335:340  state */\n      0x00\n      dup1\n        /* \"BLOQUE 1 - Conceptos básicos de Solidity/Tema 3 - Tipos de variables y operadores/enum.sol\":335:353  state = estado(_k) */\n      0x0100\n      exp\n      dup2\n      sload\n      dup2\n      0xff\n      mul\n      not\n      and\n      swap1\n      dup4\n      0x01\n      dup2\n      gt\n      iszero\n      tag_43\n      jumpi\n      invalid\n    tag_43:\n      mul\n      or\n      swap1\n      sstore\n      pop\n        /* \"BLOQUE 1 - Conceptos básicos de Solidity/Tema 3 - Tipos de variables y operadores/enum.sol\":288:361  function fijarEstado(uint _k) public{\r... */\n      pop\n      jump\t// out\n        /* \"BLOQUE 1 - Conceptos básicos de Solidity/Tema 3 - Tipos de variables y operadores/enum.sol\":640:712  function arriba() public{\r... */\n    tag_28:\n        /* \"BLOQUE 1 - Conceptos básicos de Solidity/Tema 3 - Tipos de variables y operadores/enum.sol\":686:704  direcciones.ARRIBA */\n      0x00\n        /* \"BLOQUE 1 - Conceptos básicos de Solidity/Tema 3 - Tipos de variables y operadores/enum.sol\":675:684  direccion */\n      dup1\n      0x01\n        /* \"BLOQUE 1 - Conceptos básicos de Solidity/Tema 3 - Tipos de variables y operadores/enum.sol\":675:704  direccion =direcciones.ARRIBA */\n      0x0100\n      exp\n      dup2\n      sload\n      dup2\n      0xff\n      mul\n      not\n      and\n      swap1\n      dup4\n      0x03\n      dup2\n      gt\n      iszero\n      tag_45\n      jumpi\n      invalid\n    tag_45:\n      mul\n      or\n      swap1\n      sstore\n      pop\n        /* \"BLOQUE 1 - Conceptos básicos de Solidity/Tema 3 - Tipos de variables y operadores/enum.sol\":640:712  function arriba() public{\r... */\n      jump\t// out\n        /* \"BLOQUE 1 - Conceptos básicos de Solidity/Tema 3 - Tipos de variables y operadores/enum.sol\":218:280  function encender() public{\r... */\n    tag_30:\n        /* \"BLOQUE 1 - Conceptos básicos de Solidity/Tema 3 - Tipos de variables y operadores/enum.sol\":263:272  estado.ON */\n      0x00\n        /* \"BLOQUE 1 - Conceptos básicos de Solidity/Tema 3 - Tipos de variables y operadores/enum.sol\":255:260  state */\n      dup1\n      0x00\n        /* \"BLOQUE 1 - Conceptos básicos de Solidity/Tema 3 - Tipos de variables y operadores/enum.sol\":255:272  state = estado.ON */\n      0x0100\n      exp\n      dup2\n      sload\n      dup2\n      0xff\n      mul\n      not\n      and\n      swap1\n      dup4\n      0x01\n      dup2\n      gt\n      iszero\n      tag_47\n      jumpi\n      invalid\n    tag_47:\n      mul\n      or\n      swap1\n      sstore\n      pop\n        /* \"BLOQUE 1 - Conceptos básicos de Solidity/Tema 3 - Tipos de variables y operadores/enum.sol\":218:280  function encender() public{\r... */\n      jump\t// out\n\n    auxdata: 0xa2646970667358221220517b2b5582c85c1a8b9d45df5772036ffa0d7fa09e3a9f79f7830caa5435351164736f6c634300060a0033\n}\n",
				"bytecode": {
					"linkReferences": {},
					"object": "608060405260008060016101000a81548160ff0219169083600381111561002257fe5b021790555034801561003357600080fd5b506102b0806100436000396000f3fe608060405234801561001057600080fd5b50600436106100885760003560e01c8063daf4343f1161005b578063daf4343f146100fb578063e0be4a2e14610105578063e7260f9a14610133578063e9073c331461013d57610088565b80638a60839f1461008d578063943fad7f14610097578063b1e92247146100a1578063b46e8d1a146100cf575b600080fd5b610095610147565b005b61009f61016d565b005b6100cd600480360360208110156100b757600080fd5b8101908080359060200190929190505050610193565b005b6100d76101c4565b604051808260018111156100e757fe5b60ff16815260200191505060405180910390f35b6101036101da565b005b6101316004803603602081101561011b57600080fd5b8101908080359060200190929190505050610200565b005b61013b610230565b005b610145610255565b005b6002600060016101000a81548160ff0219169083600381111561016657fe5b0217905550565b6003600060016101000a81548160ff0219169083600381111561018c57fe5b0217905550565b80600381111561019f57fe5b600060016101000a81548160ff021916908360038111156101bc57fe5b021790555050565b60008060009054906101000a900460ff16905090565b6001600060016101000a81548160ff021916908360038111156101f957fe5b0217905550565b80600181111561020c57fe5b6000806101000a81548160ff0219169083600181111561022857fe5b021790555050565b60008060016101000a81548160ff0219169083600381111561024e57fe5b0217905550565b60008060006101000a81548160ff0219169083600181111561027357fe5b021790555056fea2646970667358221220517b2b5582c85c1a8b9d45df5772036ffa0d7fa09e3a9f79f7830caa5435351164736f6c634300060a0033",
					"opcodes": "PUSH1 0x80 PUSH1 0x40 MSTORE PUSH1 0x0 DUP1 PUSH1 0x1 PUSH2 0x100 EXP DUP2 SLOAD DUP2 PUSH1 0xFF MUL NOT AND SWAP1 DUP4 PUSH1 0x3 DUP2 GT ISZERO PUSH2 0x22 JUMPI INVALID JUMPDEST MUL OR SWAP1 SSTORE POP CALLVALUE DUP1 ISZERO PUSH2 0x33 JUMPI PUSH1 0x0 DUP1 REVERT JUMPDEST POP PUSH2 0x2B0 DUP1 PUSH2 0x43 PUSH1 0x0 CODECOPY PUSH1 0x0 RETURN INVALID PUSH1 0x80 PUSH1 0x40 MSTORE CALLVALUE DUP1 ISZERO PUSH2 0x10 JUMPI PUSH1 0x0 DUP1 REVERT JUMPDEST POP PUSH1 0x4 CALLDATASIZE LT PUSH2 0x88 JUMPI PUSH1 0x0 CALLDATALOAD PUSH1 0xE0 SHR DUP1 PUSH4 0xDAF4343F GT PUSH2 0x5B JUMPI DUP1 PUSH4 0xDAF4343F EQ PUSH2 0xFB JUMPI DUP1 PUSH4 0xE0BE4A2E EQ PUSH2 0x105 JUMPI DUP1 PUSH4 0xE7260F9A EQ PUSH2 0x133 JUMPI DUP1 PUSH4 0xE9073C33 EQ PUSH2 0x13D JUMPI PUSH2 0x88 JUMP JUMPDEST DUP1 PUSH4 0x8A60839F EQ PUSH2 0x8D JUMPI DUP1 PUSH4 0x943FAD7F EQ PUSH2 0x97 JUMPI DUP1 PUSH4 0xB1E92247 EQ PUSH2 0xA1 JUMPI DUP1 PUSH4 0xB46E8D1A EQ PUSH2 0xCF JUMPI JUMPDEST PUSH1 0x0 DUP1 REVERT JUMPDEST PUSH2 0x95 PUSH2 0x147 JUMP JUMPDEST STOP JUMPDEST PUSH2 0x9F PUSH2 0x16D JUMP JUMPDEST STOP JUMPDEST PUSH2 0xCD PUSH1 0x4 DUP1 CALLDATASIZE SUB PUSH1 0x20 DUP2 LT ISZERO PUSH2 0xB7 JUMPI PUSH1 0x0 DUP1 REVERT JUMPDEST DUP2 ADD SWAP1 DUP1 DUP1 CALLDATALOAD SWAP1 PUSH1 0x20 ADD SWAP1 SWAP3 SWAP2 SWAP1 POP POP POP PUSH2 0x193 JUMP JUMPDEST STOP JUMPDEST PUSH2 0xD7 PUSH2 0x1C4 JUMP JUMPDEST PUSH1 0x40 MLOAD DUP1 DUP3 PUSH1 0x1 DUP2 GT ISZERO PUSH2 0xE7 JUMPI INVALID JUMPDEST PUSH1 0xFF AND DUP2 MSTORE PUSH1 0x20 ADD SWAP2 POP POP PUSH1 0x40 MLOAD DUP1 SWAP2 SUB SWAP1 RETURN JUMPDEST PUSH2 0x103 PUSH2 0x1DA JUMP JUMPDEST STOP JUMPDEST PUSH2 0x131 PUSH1 0x4 DUP1 CALLDATASIZE SUB PUSH1 0x20 DUP2 LT ISZERO PUSH2 0x11B JUMPI PUSH1 0x0 DUP1 REVERT JUMPDEST DUP2 ADD SWAP1 DUP1 DUP1 CALLDATALOAD SWAP1 PUSH1 0x20 ADD SWAP1 SWAP3 SWAP2 SWAP1 POP POP POP PUSH2 0x200 JUMP JUMPDEST STOP JUMPDEST PUSH2 0x13B PUSH2 0x230 JUMP JUMPDEST STOP JUMPDEST PUSH2 0x145 PUSH2 0x255 JUMP JUMPDEST STOP JUMPDEST PUSH1 0x2 PUSH1 0x0 PUSH1 0x1 PUSH2 0x100 EXP DUP2 SLOAD DUP2 PUSH1 0xFF MUL NOT AND SWAP1 DUP4 PUSH1 0x3 DUP2 GT ISZERO PUSH2 0x166 JUMPI INVALID JUMPDEST MUL OR SWAP1 SSTORE POP JUMP JUMPDEST PUSH1 0x3 PUSH1 0x0 PUSH1 0x1 PUSH2 0x100 EXP DUP2 SLOAD DUP2 PUSH1 0xFF MUL NOT AND SWAP1 DUP4 PUSH1 0x3 DUP2 GT ISZERO PUSH2 0x18C JUMPI INVALID JUMPDEST MUL OR SWAP1 SSTORE POP JUMP JUMPDEST DUP1 PUSH1 0x3 DUP2 GT ISZERO PUSH2 0x19F JUMPI INVALID JUMPDEST PUSH1 0x0 PUSH1 0x1 PUSH2 0x100 EXP DUP2 SLOAD DUP2 PUSH1 0xFF MUL NOT AND SWAP1 DUP4 PUSH1 0x3 DUP2 GT ISZERO PUSH2 0x1BC JUMPI INVALID JUMPDEST MUL OR SWAP1 SSTORE POP POP JUMP JUMPDEST PUSH1 0x0 DUP1 PUSH1 0x0 SWAP1 SLOAD SWAP1 PUSH2 0x100 EXP SWAP1 DIV PUSH1 0xFF AND SWAP1 POP SWAP1 JUMP JUMPDEST PUSH1 0x1 PUSH1 0x0 PUSH1 0x1 PUSH2 0x100 EXP DUP2 SLOAD DUP2 PUSH1 0xFF MUL NOT AND SWAP1 DUP4 PUSH1 0x3 DUP2 GT ISZERO PUSH2 0x1F9 JUMPI INVALID JUMPDEST MUL OR SWAP1 SSTORE POP JUMP JUMPDEST DUP1 PUSH1 0x1 DUP2 GT ISZERO PUSH2 0x20C JUMPI INVALID JUMPDEST PUSH1 0x0 DUP1 PUSH2 0x100 EXP DUP2 SLOAD DUP2 PUSH1 0xFF MUL NOT AND SWAP1 DUP4 PUSH1 0x1 DUP2 GT ISZERO PUSH2 0x228 JUMPI INVALID JUMPDEST MUL OR SWAP1 SSTORE POP POP JUMP JUMPDEST PUSH1 0x0 DUP1 PUSH1 0x1 PUSH2 0x100 EXP DUP2 SLOAD DUP2 PUSH1 0xFF MUL NOT AND SWAP1 DUP4 PUSH1 0x3 DUP2 GT ISZERO PUSH2 0x24E JUMPI INVALID JUMPDEST MUL OR SWAP1 SSTORE POP JUMP JUMPDEST PUSH1 0x0 DUP1 PUSH1 0x0 PUSH2 0x100 EXP DUP2 SLOAD DUP2 PUSH1 0xFF MUL NOT AND SWAP1 DUP4 PUSH1 0x1 DUP2 GT ISZERO PUSH2 0x273 JUMPI INVALID JUMPDEST MUL OR SWAP1 SSTORE POP JUMP INVALID LOG2 PUSH5 0x6970667358 0x22 SLT KECCAK256 MLOAD PUSH28 0x2B5582C85C1A8B9D45DF5772036FFA0D7FA09E3A9F79F7830CAA5435 CALLDATALOAD GT PUSH5 0x736F6C6343 STOP MOD EXP STOP CALLER "
				},
				"gasEstimates": {
					"creation": {
						"codeDepositCost": "137600",
						"executionCost": "21120",
						"totalCost": "158720"
					},
					"external": {
						"Estado()": "1148",
						"abajo()": "21081",
						"arriba()": "21125",
						"derecha()": "21082",
						"encender()": "21097",
						"fijarDirecciones(uint256)": "21236",
						"fijarEstado(uint256)": "21163",
						"izquierda()": "21104"
					}
				},
				"methodIdentifiers": {
					"Estado()": "b46e8d1a",
					"abajo()": "daf4343f",
					"arriba()": "e7260f9a",
					"derecha()": "8a60839f",
					"encender()": "e9073c33",
					"fijarDirecciones(uint256)": "b1e92247",
					"fijarEstado(uint256)": "e0be4a2e",
					"izquierda()": "943fad7f"
				}
			},
			"storageLayout": {
				"storage": [
					{
						"astId": 6,
						"contract": "BLOQUE 1 - Conceptos básicos de Solidity/Tema 3 - Tipos de variables y operadores/enum.sol:Ejemplos_enumeraciones",
						"label": "state",
						"offset": 0,
						"slot": "0",
						"type": "t_enum(estado)4"
					},
					{
						"astId": 44,
						"contract": "BLOQUE 1 - Conceptos básicos de Solidity/Tema 3 - Tipos de variables y operadores/enum.sol:Ejemplos_enumeraciones",
						"label": "direccion",
						"offset": 1,
						"slot": "0",
						"type": "t_enum(direcciones)40"
					}
				],
				"types": {
					"t_enum(direcciones)40": {
						"encoding": "inplace",
						"label": "enum Ejemplos_enumeraciones.direcciones",
						"numberOfBytes": "1"
					},
					"t_enum(estado)4": {
						"encoding": "inplace",
						"label": "enum Ejemplos_enumeraciones.estado",
						"numberOfBytes": "1"
					}
				}
			},
			"userdoc": {
				"methods": {}
			}
		}
	}
}