{
	"BLOQUE 1 - Conceptos básicos de Solidity/Tema 3 - Tipos de variables y operadores/mas_variables.sol": {
		"mas_variables": {
			"abi": [
				{
					"inputs": [],
					"name": "direccion_local",
					"outputs": [
						{
							"internalType": "address",
							"name": "",
							"type": "address"
						}
					],
					"stateMutability": "view",
					"type": "function"
				},
				{
					"inputs": [],
					"name": "direccion_local2",
					"outputs": [
						{
							"internalType": "address",
							"name": "",
							"type": "address"
						}
					],
					"stateMutability": "view",
					"type": "function"
				},
				{
					"inputs": [],
					"name": "ejemploBytes4",
					"outputs": [],
					"stateMutability": "nonpayable",
					"type": "function"
				},
				{
					"inputs": [],
					"name": "flag_false",
					"outputs": [
						{
							"internalType": "bool",
							"name": "",
							"type": "bool"
						}
					],
					"stateMutability": "view",
					"type": "function"
				},
				{
					"inputs": [],
					"name": "flag_true",
					"outputs": [
						{
							"internalType": "bool",
							"name": "",
							"type": "bool"
						}
					],
					"stateMutability": "view",
					"type": "function"
				},
				{
					"inputs": [],
					"name": "hash",
					"outputs": [
						{
							"internalType": "bytes32",
							"name": "",
							"type": "bytes32"
						}
					],
					"stateMutability": "view",
					"type": "function"
				},
				{
					"inputs": [],
					"name": "identificador",
					"outputs": [
						{
							"internalType": "bytes4",
							"name": "",
							"type": "bytes4"
						}
					],
					"stateMutability": "view",
					"type": "function"
				},
				{
					"inputs": [],
					"name": "nombre",
					"outputs": [
						{
							"internalType": "string",
							"name": "",
							"type": "string"
						}
					],
					"stateMutability": "view",
					"type": "function"
				},
				{
					"inputs": [],
					"name": "saludo",
					"outputs": [
						{
							"internalType": "string",
							"name": "",
							"type": "string"
						}
					],
					"stateMutability": "view",
					"type": "function"
				},
				{
					"inputs": [],
					"name": "string_vacio",
					"outputs": [
						{
							"internalType": "string",
							"name": "",
							"type": "string"
						}
					],
					"stateMutability": "view",
					"type": "function"
				}
			],
			"devdoc": {
				"methods": {}
			},
			"evm": {
				"assembly": "    /* \"BLOQUE 1 - Conceptos básicos de Solidity/Tema 3 - Tipos de variables y operadores/mas_variables.sol\":125:1002  contract mas_variables{\r... */\n  mstore(0x40, 0x80)\n    /* \"BLOQUE 1 - Conceptos básicos de Solidity/Tema 3 - Tipos de variables y operadores/mas_variables.sol\":236:281  string public saludo = \"Hola, ¿Cómo estas?\" */\n  mload(0x40)\n  dup1\n  0x40\n  add\n  0x40\n  mstore\n  dup1\n  0x14\n  dup2\n  mstore\n  0x20\n  add\n  0x486f6c612c20c2bf43c3b36d6f2065737461733f000000000000000000000000\n  dup2\n  mstore\n  pop\n  0x01\n  swap1\n  dup1\n  mload\n  swap1\n  0x20\n  add\n  swap1\n  tag_1\n  swap3\n  swap2\n  swap1\n  tag_2\n  jump\t// in\ntag_1:\n  pop\n    /* \"BLOQUE 1 - Conceptos básicos de Solidity/Tema 3 - Tipos de variables y operadores/mas_variables.sol\":288:319  string public string_vacio = \"\" */\n  mload(0x40)\n  dup1\n  0x20\n  add\n  0x40\n  mstore\n  dup1\n  0x00\n  dup2\n  mstore\n  pop\n  0x02\n  swap1\n  dup1\n  mload\n  swap1\n  0x20\n  add\n  swap1\n  tag_3\n  swap3\n  swap2\n  swap1\n  tag_2\n  jump\t// in\ntag_3:\n  pop\n    /* \"BLOQUE 1 - Conceptos básicos de Solidity/Tema 3 - Tipos de variables y operadores/mas_variables.sol\":408:412  true */\n  0x01\n    /* \"BLOQUE 1 - Conceptos básicos de Solidity/Tema 3 - Tipos de variables y operadores/mas_variables.sol\":385:412  bool public flag_true =true */\n  0x03\n  exp(0x0100, 0x01)\n  dup2\n  sload\n  dup2\n  0xff\n  mul\n  not\n  and\n  swap1\n  dup4\n  iszero\n  iszero\n  mul\n  or\n  swap1\n  sstore\n  pop\n    /* \"BLOQUE 1 - Conceptos básicos de Solidity/Tema 3 - Tipos de variables y operadores/mas_variables.sol\":443:448  false */\n  0x00\n    /* \"BLOQUE 1 - Conceptos básicos de Solidity/Tema 3 - Tipos de variables y operadores/mas_variables.sol\":419:448  bool public flag_false =false */\n  0x03\n  exp(0x0100, 0x02)\n  dup2\n  sload\n  dup2\n  0xff\n  mul\n  not\n  and\n  swap1\n  dup4\n  iszero\n  iszero\n  mul\n  or\n  swap1\n  sstore\n  pop\n    /* \"BLOQUE 1 - Conceptos básicos de Solidity/Tema 3 - Tipos de variables y operadores/mas_variables.sol\":545:577  string  public nombre = \"Manuel\" */\n  mload(0x40)\n  dup1\n  0x40\n  add\n  0x40\n  mstore\n  dup1\n  0x06\n  dup2\n  mstore\n  0x20\n  add\n  0x4d616e75656c0000000000000000000000000000000000000000000000000000\n  dup2\n  mstore\n  pop\n  0x06\n  swap1\n  dup1\n  mload\n  swap1\n  0x20\n  add\n  swap1\n  tag_4\n  swap3\n  swap2\n  swap1\n  tag_2\n  jump\t// in\ntag_4:\n  pop\n    /* \"BLOQUE 1 - Conceptos básicos de Solidity/Tema 3 - Tipos de variables y operadores/mas_variables.sol\":633:639  nombre */\n  0x06\n    /* \"BLOQUE 1 - Conceptos básicos de Solidity/Tema 3 - Tipos de variables y operadores/mas_variables.sol\":616:640  abi.encodePacked(nombre) */\n  add(0x20, mload(0x40))\n  tag_5\n  swap2\n  swap1\n  jump(tag_6)\ntag_5:\n  mload(0x40)\n  0x20\n  dup2\n  dup4\n  sub\n  sub\n  dup2\n  mstore\n  swap1\n  0x40\n  mstore\n    /* \"BLOQUE 1 - Conceptos básicos de Solidity/Tema 3 - Tipos de variables y operadores/mas_variables.sol\":606:641  keccak256(abi.encodePacked(nombre)) */\n  dup1\n  mload\n  swap1\n  0x20\n  add\n  keccak256\n    /* \"BLOQUE 1 - Conceptos básicos de Solidity/Tema 3 - Tipos de variables y operadores/mas_variables.sol\":584:641  bytes32 public hash = keccak256(abi.encodePacked(nombre)) */\n  0x07\n  sstore\n    /* \"BLOQUE 1 - Conceptos básicos de Solidity/Tema 3 - Tipos de variables y operadores/mas_variables.sol\":865:907  0x5B38Da6a701c568545dCfcB03FcB875f56beddC4 */\n  0x5b38da6a701c568545dcfcb03fcb875f56beddc4\n    /* \"BLOQUE 1 - Conceptos básicos de Solidity/Tema 3 - Tipos de variables y operadores/mas_variables.sol\":832:907  address public direccion_local = 0x5B38Da6a701c568545dCfcB03FcB875f56beddC4 */\n  0x09\n  exp(0x0100, 0x00)\n  dup2\n  sload\n  dup2\n  0xffffffffffffffffffffffffffffffffffffffff\n  mul\n  not\n  and\n  swap1\n  dup4\n  0xffffffffffffffffffffffffffffffffffffffff\n  and\n  mul\n  or\n  swap1\n  sstore\n  pop\n    /* \"BLOQUE 1 - Conceptos básicos de Solidity/Tema 3 - Tipos de variables y operadores/mas_variables.sol\":948:990  0xAb8483F64d9C6d1EcF9b849Ae677dD3315835cb2 */\n  0xab8483f64d9c6d1ecf9b849ae677dd3315835cb2\n    /* \"BLOQUE 1 - Conceptos básicos de Solidity/Tema 3 - Tipos de variables y operadores/mas_variables.sol\":914:990  address public direccion_local2 = 0xAb8483F64d9C6d1EcF9b849Ae677dD3315835cb2 */\n  0x0a\n  exp(0x0100, 0x00)\n  dup2\n  sload\n  dup2\n  0xffffffffffffffffffffffffffffffffffffffff\n  mul\n  not\n  and\n  swap1\n  dup4\n  0xffffffffffffffffffffffffffffffffffffffff\n  and\n  mul\n  or\n  swap1\n  sstore\n  pop\n    /* \"BLOQUE 1 - Conceptos básicos de Solidity/Tema 3 - Tipos de variables y operadores/mas_variables.sol\":125:1002  contract mas_variables{\r... */\n  callvalue\n  dup1\n  iszero\n  tag_7\n  jumpi\n  0x00\n  dup1\n  revert\ntag_7:\n  pop\n  jump(tag_8)\ntag_2:\n  dup3\n  dup1\n  sload\n  0x01\n  dup2\n  0x01\n  and\n  iszero\n  0x0100\n  mul\n  sub\n  and\n  0x02\n  swap1\n  div\n  swap1\n  0x00\n  mstore\n  keccak256(0x00, 0x20)\n  swap1\n  0x1f\n  add\n  0x20\n  swap1\n  div\n  dup2\n  add\n  swap3\n  dup3\n  0x1f\n  lt\n  tag_10\n  jumpi\n  dup1\n  mload\n  not(0xff)\n  and\n  dup4\n  dup1\n  add\n  or\n  dup6\n  sstore\n  jump(tag_9)\ntag_10:\n  dup3\n  dup1\n  add\n  0x01\n  add\n  dup6\n  sstore\n  dup3\n  iszero\n  tag_9\n  jumpi\n  swap2\n  dup3\n  add\ntag_11:\n  dup3\n  dup2\n  gt\n  iszero\n  tag_12\n  jumpi\n  dup3\n  mload\n  dup3\n  sstore\n  swap2\n  0x20\n  add\n  swap2\n  swap1\n  0x01\n  add\n  swap1\n  jump(tag_11)\ntag_12:\ntag_9:\n  pop\n  swap1\n  pop\n  tag_13\n  swap2\n  swap1\n  tag_14\n  jump\t// in\ntag_13:\n  pop\n  swap1\n  jump\t// out\ntag_14:\n  tag_15\n  swap2\n  swap1\ntag_16:\n  dup1\n  dup3\n  gt\n  iszero\n  tag_17\n  jumpi\n  0x00\n  dup2\n  0x00\n  swap1\n  sstore\n  pop\n  0x01\n  add\n  jump(tag_16)\ntag_17:\n  pop\n  swap1\n  jump\ntag_15:\n  swap1\n  jump\t// out\n    /* \"--CODEGEN--\":30:914   */\ntag_19:\n  0x00\n    /* \"--CODEGEN--\":167:172   */\n  dup2\n    /* \"--CODEGEN--\":161:173   */\n  sload\n    /* \"--CODEGEN--\":201:202   */\n  0x01\n    /* \"--CODEGEN--\":190:199   */\n  dup2\n    /* \"--CODEGEN--\":186:203   */\n  and\n    /* \"--CODEGEN--\":214:215   */\n  0x00\n    /* \"--CODEGEN--\":209:477   */\n  dup2\n  eq\n  tag_22\n  jumpi\n    /* \"--CODEGEN--\":488:489   */\n  0x01\n    /* \"--CODEGEN--\":483:908   */\n  dup2\n  eq\n  tag_23\n  jumpi\n    /* \"--CODEGEN--\":179:908   */\n  jump(tag_21)\n    /* \"--CODEGEN--\":209:477   */\ntag_22:\n    /* \"--CODEGEN--\":287:291   */\n  0x7f\n    /* \"--CODEGEN--\":283:284   */\n  0x02\n    /* \"--CODEGEN--\":272:281   */\n  dup4\n    /* \"--CODEGEN--\":268:285   */\n  div\n    /* \"--CODEGEN--\":264:292   */\n  and\n    /* \"--CODEGEN--\":306:395   */\n  tag_24\n    /* \"--CODEGEN--\":388:394   */\n  dup2\n    /* \"--CODEGEN--\":383:386   */\n  dup8\n    /* \"--CODEGEN--\":306:395   */\n  jump(tag_25)\ntag_24:\n    /* \"--CODEGEN--\":299:395   */\n  swap6\n  pop\n    /* \"--CODEGEN--\":433:437   */\n  0xff\n    /* \"--CODEGEN--\":429:438   */\n  not\n    /* \"--CODEGEN--\":418:427   */\n  dup4\n    /* \"--CODEGEN--\":414:439   */\n  and\n    /* \"--CODEGEN--\":409:412   */\n  dup7\n    /* \"--CODEGEN--\":402:440   */\n  mstore\n    /* \"--CODEGEN--\":463:469   */\n  dup1\n    /* \"--CODEGEN--\":458:461   */\n  dup7\n    /* \"--CODEGEN--\":454:470   */\n  add\n    /* \"--CODEGEN--\":447:470   */\n  swap4\n  pop\n    /* \"--CODEGEN--\":216:477   */\n  pop\n    /* \"--CODEGEN--\":209:477   */\n  jump(tag_21)\n    /* \"--CODEGEN--\":483:908   */\ntag_23:\n    /* \"--CODEGEN--\":552:553   */\n  0x02\n    /* \"--CODEGEN--\":541:550   */\n  dup3\n    /* \"--CODEGEN--\":537:554   */\n  div\n    /* \"--CODEGEN--\":568:657   */\n  tag_26\n    /* \"--CODEGEN--\":650:656   */\n  dup2\n    /* \"--CODEGEN--\":645:648   */\n  dup8\n    /* \"--CODEGEN--\":568:657   */\n  jump(tag_25)\ntag_26:\n    /* \"--CODEGEN--\":561:657   */\n  swap6\n  pop\n    /* \"--CODEGEN--\":679:717   */\n  tag_27\n    /* \"--CODEGEN--\":711:716   */\n  dup6\n    /* \"--CODEGEN--\":679:717   */\n  jump(tag_28)\ntag_27:\n    /* \"--CODEGEN--\":733:734   */\n  0x00\n    /* \"--CODEGEN--\":741:871   */\ntag_29:\n    /* \"--CODEGEN--\":755:761   */\n  dup3\n    /* \"--CODEGEN--\":752:753   */\n  dup2\n    /* \"--CODEGEN--\":749:762   */\n  lt\n    /* \"--CODEGEN--\":741:871   */\n  iszero\n  tag_31\n  jumpi\n    /* \"--CODEGEN--\":820:827   */\n  dup2\n    /* \"--CODEGEN--\":814:828   */\n  sload\n    /* \"--CODEGEN--\":810:811   */\n  dup2\n    /* \"--CODEGEN--\":805:808   */\n  dup10\n    /* \"--CODEGEN--\":801:812   */\n  add\n    /* \"--CODEGEN--\":794:829   */\n  mstore\n    /* \"--CODEGEN--\":861:862   */\n  0x01\n    /* \"--CODEGEN--\":852:859   */\n  dup3\n    /* \"--CODEGEN--\":848:863   */\n  add\n    /* \"--CODEGEN--\":837:863   */\n  swap2\n  pop\n    /* \"--CODEGEN--\":777:781   */\n  0x20\n    /* \"--CODEGEN--\":774:775   */\n  dup2\n    /* \"--CODEGEN--\":770:782   */\n  add\n    /* \"--CODEGEN--\":765:782   */\n  swap1\n  pop\n    /* \"--CODEGEN--\":741:871   */\n  jump(tag_29)\ntag_31:\n    /* \"--CODEGEN--\":894:900   */\n  dup3\n    /* \"--CODEGEN--\":889:892   */\n  dup9\n    /* \"--CODEGEN--\":885:901   */\n  add\n    /* \"--CODEGEN--\":878:901   */\n  swap6\n  pop\n    /* \"--CODEGEN--\":490:908   */\n  pop\n  pop\n  pop\n    /* \"--CODEGEN--\":179:908   */\ntag_21:\n  pop\n    /* \"--CODEGEN--\":137:914   */\n  pop\n  swap3\n  swap2\n  pop\n  pop\n  jump\n    /* \"--CODEGEN--\":922:1191   */\ntag_6:\n  0x00\n    /* \"--CODEGEN--\":1074:1166   */\n  tag_33\n    /* \"--CODEGEN--\":1162:1165   */\n  dup3\n    /* \"--CODEGEN--\":1153:1159   */\n  dup5\n    /* \"--CODEGEN--\":1074:1166   */\n  jump(tag_19)\ntag_33:\n    /* \"--CODEGEN--\":1067:1166   */\n  swap2\n  pop\n    /* \"--CODEGEN--\":1183:1186   */\n  dup2\n    /* \"--CODEGEN--\":1176:1186   */\n  swap1\n  pop\n    /* \"--CODEGEN--\":1055:1191   */\n  swap3\n  swap2\n  pop\n  pop\n  jump\n    /* \"--CODEGEN--\":1198:1356   */\ntag_28:\n  0x00\n    /* \"--CODEGEN--\":1266:1269   */\n  dup2\n    /* \"--CODEGEN--\":1258:1269   */\n  swap1\n  pop\n    /* \"--CODEGEN--\":1303:1306   */\n  dup2\n    /* \"--CODEGEN--\":1300:1301   */\n  0x00\n    /* \"--CODEGEN--\":1293:1307   */\n  mstore\n    /* \"--CODEGEN--\":1335:1339   */\n  0x20\n    /* \"--CODEGEN--\":1332:1333   */\n  0x00\n    /* \"--CODEGEN--\":1322:1340   */\n  keccak256\n    /* \"--CODEGEN--\":1314:1340   */\n  swap1\n  pop\n    /* \"--CODEGEN--\":1252:1356   */\n  swap2\n  swap1\n  pop\n  jump\n    /* \"--CODEGEN--\":1364:1509   */\ntag_25:\n  0x00\n    /* \"--CODEGEN--\":1500:1503   */\n  dup2\n    /* \"--CODEGEN--\":1485:1503   */\n  swap1\n  pop\n    /* \"--CODEGEN--\":1478:1509   */\n  swap3\n  swap2\n  pop\n  pop\n  jump\n    /* \"BLOQUE 1 - Conceptos básicos de Solidity/Tema 3 - Tipos de variables y operadores/mas_variables.sol\":125:1002  contract mas_variables{\r... */\ntag_8:\n  dataSize(sub_0)\n  dup1\n  dataOffset(sub_0)\n  0x00\n  codecopy\n  0x00\n  return\nstop\n\nsub_0: assembly {\n        /* \"BLOQUE 1 - Conceptos básicos de Solidity/Tema 3 - Tipos de variables y operadores/mas_variables.sol\":125:1002  contract mas_variables{\r... */\n      mstore(0x40, 0x80)\n      callvalue\n      dup1\n      iszero\n      tag_1\n      jumpi\n      0x00\n      dup1\n      revert\n    tag_1:\n      pop\n      jumpi(tag_2, lt(calldatasize, 0x04))\n      shr(0xe0, calldataload(0x00))\n      dup1\n      0x5fe4c677\n      gt\n      tag_13\n      jumpi\n      dup1\n      0x5fe4c677\n      eq\n      tag_8\n      jumpi\n      dup1\n      0x8320422e\n      eq\n      tag_9\n      jumpi\n      dup1\n      0xa3505b32\n      eq\n      tag_10\n      jumpi\n      dup1\n      0xbc7b35b2\n      eq\n      tag_11\n      jumpi\n      dup1\n      0xe83ec4d2\n      eq\n      tag_12\n      jumpi\n      jump(tag_2)\n    tag_13:\n      dup1\n      0x09bd5a60\n      eq\n      tag_3\n      jumpi\n      dup1\n      0x0a3a9d63\n      eq\n      tag_4\n      jumpi\n      dup1\n      0x35a41acc\n      eq\n      tag_5\n      jumpi\n      dup1\n      0x4ea35958\n      eq\n      tag_6\n      jumpi\n      dup1\n      0x519a2c1f\n      eq\n      tag_7\n      jumpi\n    tag_2:\n      0x00\n      dup1\n      revert\n        /* \"BLOQUE 1 - Conceptos básicos de Solidity/Tema 3 - Tipos de variables y operadores/mas_variables.sol\":584:641  bytes32 public hash = keccak256(abi.encodePacked(nombre)) */\n    tag_3:\n      tag_14\n      tag_15\n      jump\t// in\n    tag_14:\n      mload(0x40)\n      tag_16\n      swap2\n      swap1\n      jump(tag_17)\n    tag_16:\n      mload(0x40)\n      dup1\n      swap2\n      sub\n      swap1\n      return\n        /* \"BLOQUE 1 - Conceptos básicos de Solidity/Tema 3 - Tipos de variables y operadores/mas_variables.sol\":236:281  string public saludo = \"Hola, ¿Cómo estas?\" */\n    tag_4:\n      tag_18\n      tag_19\n      jump\t// in\n    tag_18:\n      mload(0x40)\n      tag_20\n      swap2\n      swap1\n      jump(tag_21)\n    tag_20:\n      mload(0x40)\n      dup1\n      swap2\n      sub\n      swap1\n      return\n        /* \"BLOQUE 1 - Conceptos básicos de Solidity/Tema 3 - Tipos de variables y operadores/mas_variables.sol\":650:677  bytes4 public identificador */\n    tag_5:\n      tag_22\n      tag_23\n      jump\t// in\n    tag_22:\n      mload(0x40)\n      tag_24\n      swap2\n      swap1\n      jump(tag_25)\n    tag_24:\n      mload(0x40)\n      dup1\n      swap2\n      sub\n      swap1\n      return\n        /* \"BLOQUE 1 - Conceptos básicos de Solidity/Tema 3 - Tipos de variables y operadores/mas_variables.sol\":385:412  bool public flag_true =true */\n    tag_6:\n      tag_26\n      tag_27\n      jump\t// in\n    tag_26:\n      mload(0x40)\n      tag_28\n      swap2\n      swap1\n      jump(tag_29)\n    tag_28:\n      mload(0x40)\n      dup1\n      swap2\n      sub\n      swap1\n      return\n        /* \"BLOQUE 1 - Conceptos básicos de Solidity/Tema 3 - Tipos de variables y operadores/mas_variables.sol\":832:907  address public direccion_local = 0x5B38Da6a701c568545dCfcB03FcB875f56beddC4 */\n    tag_7:\n      tag_30\n      tag_31\n      jump\t// in\n    tag_30:\n      mload(0x40)\n      tag_32\n      swap2\n      swap1\n      jump(tag_33)\n    tag_32:\n      mload(0x40)\n      dup1\n      swap2\n      sub\n      swap1\n      return\n        /* \"BLOQUE 1 - Conceptos básicos de Solidity/Tema 3 - Tipos de variables y operadores/mas_variables.sol\":419:448  bool public flag_false =false */\n    tag_8:\n      tag_34\n      tag_35\n      jump\t// in\n    tag_34:\n      mload(0x40)\n      tag_36\n      swap2\n      swap1\n      jump(tag_29)\n    tag_36:\n      mload(0x40)\n      dup1\n      swap2\n      sub\n      swap1\n      return\n        /* \"BLOQUE 1 - Conceptos básicos de Solidity/Tema 3 - Tipos de variables y operadores/mas_variables.sol\":686:764  function ejemploBytes4() public{\r... */\n    tag_9:\n      tag_37\n      tag_38\n      jump\t// in\n    tag_37:\n      stop\n        /* \"BLOQUE 1 - Conceptos básicos de Solidity/Tema 3 - Tipos de variables y operadores/mas_variables.sol\":914:990  address public direccion_local2 = 0xAb8483F64d9C6d1EcF9b849Ae677dD3315835cb2 */\n    tag_10:\n      tag_39\n      tag_40\n      jump\t// in\n    tag_39:\n      mload(0x40)\n      tag_41\n      swap2\n      swap1\n      jump(tag_33)\n    tag_41:\n      mload(0x40)\n      dup1\n      swap2\n      sub\n      swap1\n      return\n        /* \"BLOQUE 1 - Conceptos básicos de Solidity/Tema 3 - Tipos de variables y operadores/mas_variables.sol\":545:577  string  public nombre = \"Manuel\" */\n    tag_11:\n      tag_42\n      tag_43\n      jump\t// in\n    tag_42:\n      mload(0x40)\n      tag_44\n      swap2\n      swap1\n      jump(tag_21)\n    tag_44:\n      mload(0x40)\n      dup1\n      swap2\n      sub\n      swap1\n      return\n        /* \"BLOQUE 1 - Conceptos básicos de Solidity/Tema 3 - Tipos de variables y operadores/mas_variables.sol\":288:319  string public string_vacio = \"\" */\n    tag_12:\n      tag_45\n      tag_46\n      jump\t// in\n    tag_45:\n      mload(0x40)\n      tag_47\n      swap2\n      swap1\n      jump(tag_21)\n    tag_47:\n      mload(0x40)\n      dup1\n      swap2\n      sub\n      swap1\n      return\n        /* \"BLOQUE 1 - Conceptos básicos de Solidity/Tema 3 - Tipos de variables y operadores/mas_variables.sol\":584:641  bytes32 public hash = keccak256(abi.encodePacked(nombre)) */\n    tag_15:\n      sload(0x07)\n      dup2\n      jump\t// out\n        /* \"BLOQUE 1 - Conceptos básicos de Solidity/Tema 3 - Tipos de variables y operadores/mas_variables.sol\":236:281  string public saludo = \"Hola, ¿Cómo estas?\" */\n    tag_19:\n      0x01\n      dup1\n      sload\n      0x01\n      dup2\n      0x01\n      and\n      iszero\n      0x0100\n      mul\n      sub\n      and\n      0x02\n      swap1\n      div\n      dup1\n      0x1f\n      add\n      0x20\n      dup1\n      swap2\n      div\n      mul\n      0x20\n      add\n      mload(0x40)\n      swap1\n      dup2\n      add\n      0x40\n      mstore\n      dup1\n      swap3\n      swap2\n      swap1\n      dup2\n      dup2\n      mstore\n      0x20\n      add\n      dup3\n      dup1\n      sload\n      0x01\n      dup2\n      0x01\n      and\n      iszero\n      0x0100\n      mul\n      sub\n      and\n      0x02\n      swap1\n      div\n      dup1\n      iszero\n      tag_48\n      jumpi\n      dup1\n      0x1f\n      lt\n      tag_49\n      jumpi\n      0x0100\n      dup1\n      dup4\n      sload\n      div\n      mul\n      dup4\n      mstore\n      swap2\n      0x20\n      add\n      swap2\n      jump(tag_48)\n    tag_49:\n      dup3\n      add\n      swap2\n      swap1\n      0x00\n      mstore\n      keccak256(0x00, 0x20)\n      swap1\n    tag_50:\n      dup2\n      sload\n      dup2\n      mstore\n      swap1\n      0x01\n      add\n      swap1\n      0x20\n      add\n      dup1\n      dup4\n      gt\n      tag_50\n      jumpi\n      dup3\n      swap1\n      sub\n      0x1f\n      and\n      dup3\n      add\n      swap2\n    tag_48:\n      pop\n      pop\n      pop\n      pop\n      pop\n      dup2\n      jump\t// out\n        /* \"BLOQUE 1 - Conceptos básicos de Solidity/Tema 3 - Tipos de variables y operadores/mas_variables.sol\":650:677  bytes4 public identificador */\n    tag_23:\n      0x08\n      0x00\n      swap1\n      sload\n      swap1\n      0x0100\n      exp\n      swap1\n      div\n      0xe0\n      shl\n      dup2\n      jump\t// out\n        /* \"BLOQUE 1 - Conceptos básicos de Solidity/Tema 3 - Tipos de variables y operadores/mas_variables.sol\":385:412  bool public flag_true =true */\n    tag_27:\n      0x03\n      0x01\n      swap1\n      sload\n      swap1\n      0x0100\n      exp\n      swap1\n      div\n      0xff\n      and\n      dup2\n      jump\t// out\n        /* \"BLOQUE 1 - Conceptos básicos de Solidity/Tema 3 - Tipos de variables y operadores/mas_variables.sol\":832:907  address public direccion_local = 0x5B38Da6a701c568545dCfcB03FcB875f56beddC4 */\n    tag_31:\n      0x09\n      0x00\n      swap1\n      sload\n      swap1\n      0x0100\n      exp\n      swap1\n      div\n      0xffffffffffffffffffffffffffffffffffffffff\n      and\n      dup2\n      jump\t// out\n        /* \"BLOQUE 1 - Conceptos básicos de Solidity/Tema 3 - Tipos de variables y operadores/mas_variables.sol\":419:448  bool public flag_false =false */\n    tag_35:\n      0x03\n      0x02\n      swap1\n      sload\n      swap1\n      0x0100\n      exp\n      swap1\n      div\n      0xff\n      and\n      dup2\n      jump\t// out\n        /* \"BLOQUE 1 - Conceptos básicos de Solidity/Tema 3 - Tipos de variables y operadores/mas_variables.sol\":686:764  function ejemploBytes4() public{\r... */\n    tag_38:\n        /* \"BLOQUE 1 - Conceptos básicos de Solidity/Tema 3 - Tipos de variables y operadores/mas_variables.sol\":743:750  msg.sig */\n      and(0xffffffff00000000000000000000000000000000000000000000000000000000, calldataload(0x00))\n        /* \"BLOQUE 1 - Conceptos básicos de Solidity/Tema 3 - Tipos de variables y operadores/mas_variables.sol\":728:741  identificador */\n      0x08\n      0x00\n        /* \"BLOQUE 1 - Conceptos básicos de Solidity/Tema 3 - Tipos de variables y operadores/mas_variables.sol\":728:750  identificador =msg.sig */\n      0x0100\n      exp\n      dup2\n      sload\n      dup2\n      0xffffffff\n      mul\n      not\n      and\n      swap1\n      dup4\n      0xe0\n      shr\n      mul\n      or\n      swap1\n      sstore\n      pop\n        /* \"BLOQUE 1 - Conceptos básicos de Solidity/Tema 3 - Tipos de variables y operadores/mas_variables.sol\":686:764  function ejemploBytes4() public{\r... */\n      jump\t// out\n        /* \"BLOQUE 1 - Conceptos básicos de Solidity/Tema 3 - Tipos de variables y operadores/mas_variables.sol\":914:990  address public direccion_local2 = 0xAb8483F64d9C6d1EcF9b849Ae677dD3315835cb2 */\n    tag_40:\n      0x0a\n      0x00\n      swap1\n      sload\n      swap1\n      0x0100\n      exp\n      swap1\n      div\n      0xffffffffffffffffffffffffffffffffffffffff\n      and\n      dup2\n      jump\t// out\n        /* \"BLOQUE 1 - Conceptos básicos de Solidity/Tema 3 - Tipos de variables y operadores/mas_variables.sol\":545:577  string  public nombre = \"Manuel\" */\n    tag_43:\n      0x06\n      dup1\n      sload\n      0x01\n      dup2\n      0x01\n      and\n      iszero\n      0x0100\n      mul\n      sub\n      and\n      0x02\n      swap1\n      div\n      dup1\n      0x1f\n      add\n      0x20\n      dup1\n      swap2\n      div\n      mul\n      0x20\n      add\n      mload(0x40)\n      swap1\n      dup2\n      add\n      0x40\n      mstore\n      dup1\n      swap3\n      swap2\n      swap1\n      dup2\n      dup2\n      mstore\n      0x20\n      add\n      dup3\n      dup1\n      sload\n      0x01\n      dup2\n      0x01\n      and\n      iszero\n      0x0100\n      mul\n      sub\n      and\n      0x02\n      swap1\n      div\n      dup1\n      iszero\n      tag_52\n      jumpi\n      dup1\n      0x1f\n      lt\n      tag_53\n      jumpi\n      0x0100\n      dup1\n      dup4\n      sload\n      div\n      mul\n      dup4\n      mstore\n      swap2\n      0x20\n      add\n      swap2\n      jump(tag_52)\n    tag_53:\n      dup3\n      add\n      swap2\n      swap1\n      0x00\n      mstore\n      keccak256(0x00, 0x20)\n      swap1\n    tag_54:\n      dup2\n      sload\n      dup2\n      mstore\n      swap1\n      0x01\n      add\n      swap1\n      0x20\n      add\n      dup1\n      dup4\n      gt\n      tag_54\n      jumpi\n      dup3\n      swap1\n      sub\n      0x1f\n      and\n      dup3\n      add\n      swap2\n    tag_52:\n      pop\n      pop\n      pop\n      pop\n      pop\n      dup2\n      jump\t// out\n        /* \"BLOQUE 1 - Conceptos básicos de Solidity/Tema 3 - Tipos de variables y operadores/mas_variables.sol\":288:319  string public string_vacio = \"\" */\n    tag_46:\n      0x02\n      dup1\n      sload\n      0x01\n      dup2\n      0x01\n      and\n      iszero\n      0x0100\n      mul\n      sub\n      and\n      0x02\n      swap1\n      div\n      dup1\n      0x1f\n      add\n      0x20\n      dup1\n      swap2\n      div\n      mul\n      0x20\n      add\n      mload(0x40)\n      swap1\n      dup2\n      add\n      0x40\n      mstore\n      dup1\n      swap3\n      swap2\n      swap1\n      dup2\n      dup2\n      mstore\n      0x20\n      add\n      dup3\n      dup1\n      sload\n      0x01\n      dup2\n      0x01\n      and\n      iszero\n      0x0100\n      mul\n      sub\n      and\n      0x02\n      swap1\n      div\n      dup1\n      iszero\n      tag_55\n      jumpi\n      dup1\n      0x1f\n      lt\n      tag_56\n      jumpi\n      0x0100\n      dup1\n      dup4\n      sload\n      div\n      mul\n      dup4\n      mstore\n      swap2\n      0x20\n      add\n      swap2\n      jump(tag_55)\n    tag_56:\n      dup3\n      add\n      swap2\n      swap1\n      0x00\n      mstore\n      keccak256(0x00, 0x20)\n      swap1\n    tag_57:\n      dup2\n      sload\n      dup2\n      mstore\n      swap1\n      0x01\n      add\n      swap1\n      0x20\n      add\n      dup1\n      dup4\n      gt\n      tag_57\n      jumpi\n      dup3\n      swap1\n      sub\n      0x1f\n      and\n      dup3\n      add\n      swap2\n    tag_55:\n      pop\n      pop\n      pop\n      pop\n      pop\n      dup2\n      jump\t// out\n        /* \"--CODEGEN--\":5:118   */\n    tag_59:\n        /* \"--CODEGEN--\":88:112   */\n      tag_61\n        /* \"--CODEGEN--\":106:111   */\n      dup2\n        /* \"--CODEGEN--\":88:112   */\n      jump(tag_62)\n    tag_61:\n        /* \"--CODEGEN--\":83:86   */\n      dup3\n        /* \"--CODEGEN--\":76:113   */\n      mstore\n        /* \"--CODEGEN--\":70:118   */\n      pop\n      pop\n      jump\n        /* \"--CODEGEN--\":125:229   */\n    tag_63:\n        /* \"--CODEGEN--\":202:223   */\n      tag_65\n        /* \"--CODEGEN--\":217:222   */\n      dup2\n        /* \"--CODEGEN--\":202:223   */\n      jump(tag_66)\n    tag_65:\n        /* \"--CODEGEN--\":197:200   */\n      dup3\n        /* \"--CODEGEN--\":190:224   */\n      mstore\n        /* \"--CODEGEN--\":184:229   */\n      pop\n      pop\n      jump\n        /* \"--CODEGEN--\":236:349   */\n    tag_67:\n        /* \"--CODEGEN--\":319:343   */\n      tag_69\n        /* \"--CODEGEN--\":337:342   */\n      dup2\n        /* \"--CODEGEN--\":319:343   */\n      jump(tag_70)\n    tag_69:\n        /* \"--CODEGEN--\":314:317   */\n      dup3\n        /* \"--CODEGEN--\":307:344   */\n      mstore\n        /* \"--CODEGEN--\":301:349   */\n      pop\n      pop\n      jump\n        /* \"--CODEGEN--\":356:466   */\n    tag_71:\n        /* \"--CODEGEN--\":437:460   */\n      tag_73\n        /* \"--CODEGEN--\":454:459   */\n      dup2\n        /* \"--CODEGEN--\":437:460   */\n      jump(tag_74)\n    tag_73:\n        /* \"--CODEGEN--\":432:435   */\n      dup3\n        /* \"--CODEGEN--\":425:461   */\n      mstore\n        /* \"--CODEGEN--\":419:466   */\n      pop\n      pop\n      jump\n        /* \"--CODEGEN--\":473:820   */\n    tag_75:\n      0x00\n        /* \"--CODEGEN--\":585:624   */\n      tag_77\n        /* \"--CODEGEN--\":618:623   */\n      dup3\n        /* \"--CODEGEN--\":585:624   */\n      jump(tag_78)\n    tag_77:\n        /* \"--CODEGEN--\":636:707   */\n      tag_79\n        /* \"--CODEGEN--\":700:706   */\n      dup2\n        /* \"--CODEGEN--\":695:698   */\n      dup6\n        /* \"--CODEGEN--\":636:707   */\n      jump(tag_80)\n    tag_79:\n        /* \"--CODEGEN--\":629:707   */\n      swap4\n      pop\n        /* \"--CODEGEN--\":712:764   */\n      tag_81\n        /* \"--CODEGEN--\":757:763   */\n      dup2\n        /* \"--CODEGEN--\":752:755   */\n      dup6\n        /* \"--CODEGEN--\":745:749   */\n      0x20\n        /* \"--CODEGEN--\":738:743   */\n      dup7\n        /* \"--CODEGEN--\":734:750   */\n      add\n        /* \"--CODEGEN--\":712:764   */\n      jump(tag_82)\n    tag_81:\n        /* \"--CODEGEN--\":785:814   */\n      tag_83\n        /* \"--CODEGEN--\":807:813   */\n      dup2\n        /* \"--CODEGEN--\":785:814   */\n      jump(tag_84)\n    tag_83:\n        /* \"--CODEGEN--\":780:783   */\n      dup5\n        /* \"--CODEGEN--\":776:815   */\n      add\n        /* \"--CODEGEN--\":769:815   */\n      swap2\n      pop\n        /* \"--CODEGEN--\":565:820   */\n      pop\n      swap3\n      swap2\n      pop\n      pop\n      jump\n        /* \"--CODEGEN--\":827:1049   */\n    tag_33:\n      0x00\n        /* \"--CODEGEN--\":954:956   */\n      0x20\n        /* \"--CODEGEN--\":943:952   */\n      dup3\n        /* \"--CODEGEN--\":939:957   */\n      add\n        /* \"--CODEGEN--\":931:957   */\n      swap1\n      pop\n        /* \"--CODEGEN--\":968:1039   */\n      tag_86\n        /* \"--CODEGEN--\":1036:1037   */\n      0x00\n        /* \"--CODEGEN--\":1025:1034   */\n      dup4\n        /* \"--CODEGEN--\":1021:1038   */\n      add\n        /* \"--CODEGEN--\":1012:1018   */\n      dup5\n        /* \"--CODEGEN--\":968:1039   */\n      jump(tag_59)\n    tag_86:\n        /* \"--CODEGEN--\":925:1049   */\n      swap3\n      swap2\n      pop\n      pop\n      jump\n        /* \"--CODEGEN--\":1056:1266   */\n    tag_29:\n      0x00\n        /* \"--CODEGEN--\":1177:1179   */\n      0x20\n        /* \"--CODEGEN--\":1166:1175   */\n      dup3\n        /* \"--CODEGEN--\":1162:1180   */\n      add\n        /* \"--CODEGEN--\":1154:1180   */\n      swap1\n      pop\n        /* \"--CODEGEN--\":1191:1256   */\n      tag_88\n        /* \"--CODEGEN--\":1253:1254   */\n      0x00\n        /* \"--CODEGEN--\":1242:1251   */\n      dup4\n        /* \"--CODEGEN--\":1238:1255   */\n      add\n        /* \"--CODEGEN--\":1229:1235   */\n      dup5\n        /* \"--CODEGEN--\":1191:1256   */\n      jump(tag_63)\n    tag_88:\n        /* \"--CODEGEN--\":1148:1266   */\n      swap3\n      swap2\n      pop\n      pop\n      jump\n        /* \"--CODEGEN--\":1273:1495   */\n    tag_17:\n      0x00\n        /* \"--CODEGEN--\":1400:1402   */\n      0x20\n        /* \"--CODEGEN--\":1389:1398   */\n      dup3\n        /* \"--CODEGEN--\":1385:1403   */\n      add\n        /* \"--CODEGEN--\":1377:1403   */\n      swap1\n      pop\n        /* \"--CODEGEN--\":1414:1485   */\n      tag_90\n        /* \"--CODEGEN--\":1482:1483   */\n      0x00\n        /* \"--CODEGEN--\":1471:1480   */\n      dup4\n        /* \"--CODEGEN--\":1467:1484   */\n      add\n        /* \"--CODEGEN--\":1458:1464   */\n      dup5\n        /* \"--CODEGEN--\":1414:1485   */\n      jump(tag_67)\n    tag_90:\n        /* \"--CODEGEN--\":1371:1495   */\n      swap3\n      swap2\n      pop\n      pop\n      jump\n        /* \"--CODEGEN--\":1502:1720   */\n    tag_25:\n      0x00\n        /* \"--CODEGEN--\":1627:1629   */\n      0x20\n        /* \"--CODEGEN--\":1616:1625   */\n      dup3\n        /* \"--CODEGEN--\":1612:1630   */\n      add\n        /* \"--CODEGEN--\":1604:1630   */\n      swap1\n      pop\n        /* \"--CODEGEN--\":1641:1710   */\n      tag_92\n        /* \"--CODEGEN--\":1707:1708   */\n      0x00\n        /* \"--CODEGEN--\":1696:1705   */\n      dup4\n        /* \"--CODEGEN--\":1692:1709   */\n      add\n        /* \"--CODEGEN--\":1683:1689   */\n      dup5\n        /* \"--CODEGEN--\":1641:1710   */\n      jump(tag_71)\n    tag_92:\n        /* \"--CODEGEN--\":1598:1720   */\n      swap3\n      swap2\n      pop\n      pop\n      jump\n        /* \"--CODEGEN--\":1727:2037   */\n    tag_21:\n      0x00\n        /* \"--CODEGEN--\":1874:1876   */\n      0x20\n        /* \"--CODEGEN--\":1863:1872   */\n      dup3\n        /* \"--CODEGEN--\":1859:1877   */\n      add\n        /* \"--CODEGEN--\":1851:1877   */\n      swap1\n      pop\n        /* \"--CODEGEN--\":1924:1933   */\n      dup2\n        /* \"--CODEGEN--\":1918:1922   */\n      dup2\n        /* \"--CODEGEN--\":1914:1934   */\n      sub\n        /* \"--CODEGEN--\":1910:1911   */\n      0x00\n        /* \"--CODEGEN--\":1899:1908   */\n      dup4\n        /* \"--CODEGEN--\":1895:1912   */\n      add\n        /* \"--CODEGEN--\":1888:1935   */\n      mstore\n        /* \"--CODEGEN--\":1949:2027   */\n      tag_94\n        /* \"--CODEGEN--\":2022:2026   */\n      dup2\n        /* \"--CODEGEN--\":2013:2019   */\n      dup5\n        /* \"--CODEGEN--\":1949:2027   */\n      jump(tag_75)\n    tag_94:\n        /* \"--CODEGEN--\":1941:2027   */\n      swap1\n      pop\n        /* \"--CODEGEN--\":1845:2037   */\n      swap3\n      swap2\n      pop\n      pop\n      jump\n        /* \"--CODEGEN--\":2044:2166   */\n    tag_78:\n      0x00\n        /* \"--CODEGEN--\":2138:2143   */\n      dup2\n        /* \"--CODEGEN--\":2132:2144   */\n      mload\n        /* \"--CODEGEN--\":2122:2144   */\n      swap1\n      pop\n        /* \"--CODEGEN--\":2103:2166   */\n      swap2\n      swap1\n      pop\n      jump\n        /* \"--CODEGEN--\":2174:2337   */\n    tag_80:\n      0x00\n        /* \"--CODEGEN--\":2289:2295   */\n      dup3\n        /* \"--CODEGEN--\":2284:2287   */\n      dup3\n        /* \"--CODEGEN--\":2277:2296   */\n      mstore\n        /* \"--CODEGEN--\":2326:2330   */\n      0x20\n        /* \"--CODEGEN--\":2321:2324   */\n      dup3\n        /* \"--CODEGEN--\":2317:2331   */\n      add\n        /* \"--CODEGEN--\":2302:2331   */\n      swap1\n      pop\n        /* \"--CODEGEN--\":2270:2337   */\n      swap3\n      swap2\n      pop\n      pop\n      jump\n        /* \"--CODEGEN--\":2345:2436   */\n    tag_62:\n      0x00\n        /* \"--CODEGEN--\":2407:2431   */\n      tag_98\n        /* \"--CODEGEN--\":2425:2430   */\n      dup3\n        /* \"--CODEGEN--\":2407:2431   */\n      jump(tag_99)\n    tag_98:\n        /* \"--CODEGEN--\":2396:2431   */\n      swap1\n      pop\n        /* \"--CODEGEN--\":2390:2436   */\n      swap2\n      swap1\n      pop\n      jump\n        /* \"--CODEGEN--\":2443:2528   */\n    tag_66:\n      0x00\n        /* \"--CODEGEN--\":2516:2521   */\n      dup2\n        /* \"--CODEGEN--\":2509:2522   */\n      iszero\n        /* \"--CODEGEN--\":2502:2523   */\n      iszero\n        /* \"--CODEGEN--\":2491:2523   */\n      swap1\n      pop\n        /* \"--CODEGEN--\":2485:2528   */\n      swap2\n      swap1\n      pop\n      jump\n        /* \"--CODEGEN--\":2535:2607   */\n    tag_70:\n      0x00\n        /* \"--CODEGEN--\":2597:2602   */\n      dup2\n        /* \"--CODEGEN--\":2586:2602   */\n      swap1\n      pop\n        /* \"--CODEGEN--\":2580:2607   */\n      swap2\n      swap1\n      pop\n      jump\n        /* \"--CODEGEN--\":2614:2758   */\n    tag_74:\n      0x00\n        /* \"--CODEGEN--\":2686:2752   */\n      0xffffffff00000000000000000000000000000000000000000000000000000000\n        /* \"--CODEGEN--\":2679:2684   */\n      dup3\n        /* \"--CODEGEN--\":2675:2753   */\n      and\n        /* \"--CODEGEN--\":2664:2753   */\n      swap1\n      pop\n        /* \"--CODEGEN--\":2658:2758   */\n      swap2\n      swap1\n      pop\n      jump\n        /* \"--CODEGEN--\":2765:2886   */\n    tag_99:\n      0x00\n        /* \"--CODEGEN--\":2838:2880   */\n      0xffffffffffffffffffffffffffffffffffffffff\n        /* \"--CODEGEN--\":2831:2836   */\n      dup3\n        /* \"--CODEGEN--\":2827:2881   */\n      and\n        /* \"--CODEGEN--\":2816:2881   */\n      swap1\n      pop\n        /* \"--CODEGEN--\":2810:2886   */\n      swap2\n      swap1\n      pop\n      jump\n        /* \"--CODEGEN--\":2894:3162   */\n    tag_82:\n        /* \"--CODEGEN--\":2959:2960   */\n      0x00\n        /* \"--CODEGEN--\":2966:3067   */\n    tag_105:\n        /* \"--CODEGEN--\":2980:2986   */\n      dup4\n        /* \"--CODEGEN--\":2977:2978   */\n      dup2\n        /* \"--CODEGEN--\":2974:2987   */\n      lt\n        /* \"--CODEGEN--\":2966:3067   */\n      iszero\n      tag_107\n      jumpi\n        /* \"--CODEGEN--\":3056:3057   */\n      dup1\n        /* \"--CODEGEN--\":3051:3054   */\n      dup3\n        /* \"--CODEGEN--\":3047:3058   */\n      add\n        /* \"--CODEGEN--\":3041:3059   */\n      mload\n        /* \"--CODEGEN--\":3037:3038   */\n      dup2\n        /* \"--CODEGEN--\":3032:3035   */\n      dup5\n        /* \"--CODEGEN--\":3028:3039   */\n      add\n        /* \"--CODEGEN--\":3021:3060   */\n      mstore\n        /* \"--CODEGEN--\":3002:3004   */\n      0x20\n        /* \"--CODEGEN--\":2999:3000   */\n      dup2\n        /* \"--CODEGEN--\":2995:3005   */\n      add\n        /* \"--CODEGEN--\":2990:3005   */\n      swap1\n      pop\n        /* \"--CODEGEN--\":2966:3067   */\n      jump(tag_105)\n    tag_107:\n        /* \"--CODEGEN--\":3082:3088   */\n      dup4\n        /* \"--CODEGEN--\":3079:3080   */\n      dup2\n        /* \"--CODEGEN--\":3076:3089   */\n      gt\n        /* \"--CODEGEN--\":3073:3075   */\n      iszero\n      tag_108\n      jumpi\n        /* \"--CODEGEN--\":3147:3148   */\n      0x00\n        /* \"--CODEGEN--\":3138:3144   */\n      dup5\n        /* \"--CODEGEN--\":3133:3136   */\n      dup5\n        /* \"--CODEGEN--\":3129:3145   */\n      add\n        /* \"--CODEGEN--\":3122:3149   */\n      mstore\n        /* \"--CODEGEN--\":3073:3075   */\n    tag_108:\n        /* \"--CODEGEN--\":2943:3162   */\n      pop\n      pop\n      pop\n      pop\n      jump\n        /* \"--CODEGEN--\":3170:3267   */\n    tag_84:\n      0x00\n        /* \"--CODEGEN--\":3258:3260   */\n      0x1f\n        /* \"--CODEGEN--\":3254:3261   */\n      not\n        /* \"--CODEGEN--\":3249:3251   */\n      0x1f\n        /* \"--CODEGEN--\":3242:3247   */\n      dup4\n        /* \"--CODEGEN--\":3238:3252   */\n      add\n        /* \"--CODEGEN--\":3234:3262   */\n      and\n        /* \"--CODEGEN--\":3224:3262   */\n      swap1\n      pop\n        /* \"--CODEGEN--\":3218:3267   */\n      swap2\n      swap1\n      pop\n      jump\n\n    auxdata: 0xa2646970667358221220197fd7302fbaebf0cb301e4b618398d2358215f644a2b42715660c1a682c941164736f6c63430006090033\n}\n",
				"bytecode": {
					"linkReferences": {},
					"object": "60806040526040518060400160405280601481526020017f486f6c612c20c2bf43c3b36d6f2065737461733f0000000000000000000000008152506001908051906020019061004f9291906101df565b5060405180602001604052806000815250600290805190602001906100759291906101df565b506001600360016101000a81548160ff0219169083151502179055506000600360026101000a81548160ff0219169083151502179055506040518060400160405280600681526020017f4d616e75656c0000000000000000000000000000000000000000000000000000815250600690805190602001906100f79291906101df565b50600660405160200161010a9190610312565b60405160208183030381529060405280519060200120600755735b38da6a701c568545dcfcb03fcb875f56beddc4600960006101000a81548173ffffffffffffffffffffffffffffffffffffffff021916908373ffffffffffffffffffffffffffffffffffffffff16021790555073ab8483f64d9c6d1ecf9b849ae677dd3315835cb2600a60006101000a81548173ffffffffffffffffffffffffffffffffffffffff021916908373ffffffffffffffffffffffffffffffffffffffff1602179055503480156101d957600080fd5b50610349565b828054600181600116156101000203166002900490600052602060002090601f016020900481019282601f1061022057805160ff191683800117855561024e565b8280016001018555821561024e579182015b8281111561024d578251825591602001919060010190610232565b5b50905061025b919061025f565b5090565b61028191905b8082111561027d576000816000905550600101610265565b5090565b90565b6000815460018116600081146102a157600181146102c65761030a565b607f60028304166102b2818761033e565b955060ff198316865280860193505061030a565b600282046102d4818761033e565b95506102df85610329565b60005b82811015610301578154818901526001820191506020810190506102e2565b82880195505050505b505092915050565b600061031e8284610284565b915081905092915050565b60008190508160005260206000209050919050565b600081905092915050565b610671806103586000396000f3fe608060405234801561001057600080fd5b506004361061009e5760003560e01c80635fe4c677116100665780635fe4c677146101395780638320422e14610157578063a3505b3214610161578063bc7b35b21461017f578063e83ec4d21461019d5761009e565b806309bd5a60146100a35780630a3a9d63146100c157806335a41acc146100df5780634ea35958146100fd578063519a2c1f1461011b575b600080fd5b6100ab6101bb565b6040516100b8919061050f565b60405180910390f35b6100c96101c1565b6040516100d69190610545565b60405180910390f35b6100e761025f565b6040516100f4919061052a565b60405180910390f35b610105610272565b60405161011291906104f4565b60405180910390f35b610123610285565b60405161013091906104d9565b60405180910390f35b6101416102ab565b60405161014e91906104f4565b60405180910390f35b61015f6102be565b005b610169610302565b60405161017691906104d9565b60405180910390f35b610187610328565b6040516101949190610545565b60405180910390f35b6101a56103c6565b6040516101b29190610545565b60405180910390f35b60075481565b60018054600181600116156101000203166002900480601f0160208091040260200160405190810160405280929190818152602001828054600181600116156101000203166002900480156102575780601f1061022c57610100808354040283529160200191610257565b820191906000526020600020905b81548152906001019060200180831161023a57829003601f168201915b505050505081565b600860009054906101000a900460e01b81565b600360019054906101000a900460ff1681565b600960009054906101000a900473ffffffffffffffffffffffffffffffffffffffff1681565b600360029054906101000a900460ff1681565b6000357fffffffff0000000000000000000000000000000000000000000000000000000016600860006101000a81548163ffffffff021916908360e01c0217905550565b600a60009054906101000a900473ffffffffffffffffffffffffffffffffffffffff1681565b60068054600181600116156101000203166002900480601f0160208091040260200160405190810160405280929190818152602001828054600181600116156101000203166002900480156103be5780601f10610393576101008083540402835291602001916103be565b820191906000526020600020905b8154815290600101906020018083116103a157829003601f168201915b505050505081565b60028054600181600116156101000203166002900480601f01602080910402602001604051908101604052809291908181526020018280546001816001161561010002031660029004801561045c5780601f106104315761010080835404028352916020019161045c565b820191906000526020600020905b81548152906001019060200180831161043f57829003601f168201915b505050505081565b61046d81610583565b82525050565b61047c81610595565b82525050565b61048b816105a1565b82525050565b61049a816105ab565b82525050565b60006104ab82610567565b6104b58185610572565b93506104c58185602086016105f7565b6104ce8161062a565b840191505092915050565b60006020820190506104ee6000830184610464565b92915050565b60006020820190506105096000830184610473565b92915050565b60006020820190506105246000830184610482565b92915050565b600060208201905061053f6000830184610491565b92915050565b6000602082019050818103600083015261055f81846104a0565b905092915050565b600081519050919050565b600082825260208201905092915050565b600061058e826105d7565b9050919050565b60008115159050919050565b6000819050919050565b60007fffffffff0000000000000000000000000000000000000000000000000000000082169050919050565b600073ffffffffffffffffffffffffffffffffffffffff82169050919050565b60005b838110156106155780820151818401526020810190506105fa565b83811115610624576000848401525b50505050565b6000601f19601f830116905091905056fea2646970667358221220197fd7302fbaebf0cb301e4b618398d2358215f644a2b42715660c1a682c941164736f6c63430006090033",
					"opcodes": "PUSH1 0x80 PUSH1 0x40 MSTORE PUSH1 0x40 MLOAD DUP1 PUSH1 0x40 ADD PUSH1 0x40 MSTORE DUP1 PUSH1 0x14 DUP2 MSTORE PUSH1 0x20 ADD PUSH32 0x486F6C612C20C2BF43C3B36D6F2065737461733F000000000000000000000000 DUP2 MSTORE POP PUSH1 0x1 SWAP1 DUP1 MLOAD SWAP1 PUSH1 0x20 ADD SWAP1 PUSH2 0x4F SWAP3 SWAP2 SWAP1 PUSH2 0x1DF JUMP JUMPDEST POP PUSH1 0x40 MLOAD DUP1 PUSH1 0x20 ADD PUSH1 0x40 MSTORE DUP1 PUSH1 0x0 DUP2 MSTORE POP PUSH1 0x2 SWAP1 DUP1 MLOAD SWAP1 PUSH1 0x20 ADD SWAP1 PUSH2 0x75 SWAP3 SWAP2 SWAP1 PUSH2 0x1DF JUMP JUMPDEST POP PUSH1 0x1 PUSH1 0x3 PUSH1 0x1 PUSH2 0x100 EXP DUP2 SLOAD DUP2 PUSH1 0xFF MUL NOT AND SWAP1 DUP4 ISZERO ISZERO MUL OR SWAP1 SSTORE POP PUSH1 0x0 PUSH1 0x3 PUSH1 0x2 PUSH2 0x100 EXP DUP2 SLOAD DUP2 PUSH1 0xFF MUL NOT AND SWAP1 DUP4 ISZERO ISZERO MUL OR SWAP1 SSTORE POP PUSH1 0x40 MLOAD DUP1 PUSH1 0x40 ADD PUSH1 0x40 MSTORE DUP1 PUSH1 0x6 DUP2 MSTORE PUSH1 0x20 ADD PUSH32 0x4D616E75656C0000000000000000000000000000000000000000000000000000 DUP2 MSTORE POP PUSH1 0x6 SWAP1 DUP1 MLOAD SWAP1 PUSH1 0x20 ADD SWAP1 PUSH2 0xF7 SWAP3 SWAP2 SWAP1 PUSH2 0x1DF JUMP JUMPDEST POP PUSH1 0x6 PUSH1 0x40 MLOAD PUSH1 0x20 ADD PUSH2 0x10A SWAP2 SWAP1 PUSH2 0x312 JUMP JUMPDEST PUSH1 0x40 MLOAD PUSH1 0x20 DUP2 DUP4 SUB SUB DUP2 MSTORE SWAP1 PUSH1 0x40 MSTORE DUP1 MLOAD SWAP1 PUSH1 0x20 ADD KECCAK256 PUSH1 0x7 SSTORE PUSH20 0x5B38DA6A701C568545DCFCB03FCB875F56BEDDC4 PUSH1 0x9 PUSH1 0x0 PUSH2 0x100 EXP DUP2 SLOAD DUP2 PUSH20 0xFFFFFFFFFFFFFFFFFFFFFFFFFFFFFFFFFFFFFFFF MUL NOT AND SWAP1 DUP4 PUSH20 0xFFFFFFFFFFFFFFFFFFFFFFFFFFFFFFFFFFFFFFFF AND MUL OR SWAP1 SSTORE POP PUSH20 0xAB8483F64D9C6D1ECF9B849AE677DD3315835CB2 PUSH1 0xA PUSH1 0x0 PUSH2 0x100 EXP DUP2 SLOAD DUP2 PUSH20 0xFFFFFFFFFFFFFFFFFFFFFFFFFFFFFFFFFFFFFFFF MUL NOT AND SWAP1 DUP4 PUSH20 0xFFFFFFFFFFFFFFFFFFFFFFFFFFFFFFFFFFFFFFFF AND MUL OR SWAP1 SSTORE POP CALLVALUE DUP1 ISZERO PUSH2 0x1D9 JUMPI PUSH1 0x0 DUP1 REVERT JUMPDEST POP PUSH2 0x349 JUMP JUMPDEST DUP3 DUP1 SLOAD PUSH1 0x1 DUP2 PUSH1 0x1 AND ISZERO PUSH2 0x100 MUL SUB AND PUSH1 0x2 SWAP1 DIV SWAP1 PUSH1 0x0 MSTORE PUSH1 0x20 PUSH1 0x0 KECCAK256 SWAP1 PUSH1 0x1F ADD PUSH1 0x20 SWAP1 DIV DUP2 ADD SWAP3 DUP3 PUSH1 0x1F LT PUSH2 0x220 JUMPI DUP1 MLOAD PUSH1 0xFF NOT AND DUP4 DUP1 ADD OR DUP6 SSTORE PUSH2 0x24E JUMP JUMPDEST DUP3 DUP1 ADD PUSH1 0x1 ADD DUP6 SSTORE DUP3 ISZERO PUSH2 0x24E JUMPI SWAP2 DUP3 ADD JUMPDEST DUP3 DUP2 GT ISZERO PUSH2 0x24D JUMPI DUP3 MLOAD DUP3 SSTORE SWAP2 PUSH1 0x20 ADD SWAP2 SWAP1 PUSH1 0x1 ADD SWAP1 PUSH2 0x232 JUMP JUMPDEST JUMPDEST POP SWAP1 POP PUSH2 0x25B SWAP2 SWAP1 PUSH2 0x25F JUMP JUMPDEST POP SWAP1 JUMP JUMPDEST PUSH2 0x281 SWAP2 SWAP1 JUMPDEST DUP1 DUP3 GT ISZERO PUSH2 0x27D JUMPI PUSH1 0x0 DUP2 PUSH1 0x0 SWAP1 SSTORE POP PUSH1 0x1 ADD PUSH2 0x265 JUMP JUMPDEST POP SWAP1 JUMP JUMPDEST SWAP1 JUMP JUMPDEST PUSH1 0x0 DUP2 SLOAD PUSH1 0x1 DUP2 AND PUSH1 0x0 DUP2 EQ PUSH2 0x2A1 JUMPI PUSH1 0x1 DUP2 EQ PUSH2 0x2C6 JUMPI PUSH2 0x30A JUMP JUMPDEST PUSH1 0x7F PUSH1 0x2 DUP4 DIV AND PUSH2 0x2B2 DUP2 DUP8 PUSH2 0x33E JUMP JUMPDEST SWAP6 POP PUSH1 0xFF NOT DUP4 AND DUP7 MSTORE DUP1 DUP7 ADD SWAP4 POP POP PUSH2 0x30A JUMP JUMPDEST PUSH1 0x2 DUP3 DIV PUSH2 0x2D4 DUP2 DUP8 PUSH2 0x33E JUMP JUMPDEST SWAP6 POP PUSH2 0x2DF DUP6 PUSH2 0x329 JUMP JUMPDEST PUSH1 0x0 JUMPDEST DUP3 DUP2 LT ISZERO PUSH2 0x301 JUMPI DUP2 SLOAD DUP2 DUP10 ADD MSTORE PUSH1 0x1 DUP3 ADD SWAP2 POP PUSH1 0x20 DUP2 ADD SWAP1 POP PUSH2 0x2E2 JUMP JUMPDEST DUP3 DUP9 ADD SWAP6 POP POP POP POP JUMPDEST POP POP SWAP3 SWAP2 POP POP JUMP JUMPDEST PUSH1 0x0 PUSH2 0x31E DUP3 DUP5 PUSH2 0x284 JUMP JUMPDEST SWAP2 POP DUP2 SWAP1 POP SWAP3 SWAP2 POP POP JUMP JUMPDEST PUSH1 0x0 DUP2 SWAP1 POP DUP2 PUSH1 0x0 MSTORE PUSH1 0x20 PUSH1 0x0 KECCAK256 SWAP1 POP SWAP2 SWAP1 POP JUMP JUMPDEST PUSH1 0x0 DUP2 SWAP1 POP SWAP3 SWAP2 POP POP JUMP JUMPDEST PUSH2 0x671 DUP1 PUSH2 0x358 PUSH1 0x0 CODECOPY PUSH1 0x0 RETURN INVALID PUSH1 0x80 PUSH1 0x40 MSTORE CALLVALUE DUP1 ISZERO PUSH2 0x10 JUMPI PUSH1 0x0 DUP1 REVERT JUMPDEST POP PUSH1 0x4 CALLDATASIZE LT PUSH2 0x9E JUMPI PUSH1 0x0 CALLDATALOAD PUSH1 0xE0 SHR DUP1 PUSH4 0x5FE4C677 GT PUSH2 0x66 JUMPI DUP1 PUSH4 0x5FE4C677 EQ PUSH2 0x139 JUMPI DUP1 PUSH4 0x8320422E EQ PUSH2 0x157 JUMPI DUP1 PUSH4 0xA3505B32 EQ PUSH2 0x161 JUMPI DUP1 PUSH4 0xBC7B35B2 EQ PUSH2 0x17F JUMPI DUP1 PUSH4 0xE83EC4D2 EQ PUSH2 0x19D JUMPI PUSH2 0x9E JUMP JUMPDEST DUP1 PUSH4 0x9BD5A60 EQ PUSH2 0xA3 JUMPI DUP1 PUSH4 0xA3A9D63 EQ PUSH2 0xC1 JUMPI DUP1 PUSH4 0x35A41ACC EQ PUSH2 0xDF JUMPI DUP1 PUSH4 0x4EA35958 EQ PUSH2 0xFD JUMPI DUP1 PUSH4 0x519A2C1F EQ PUSH2 0x11B JUMPI JUMPDEST PUSH1 0x0 DUP1 REVERT JUMPDEST PUSH2 0xAB PUSH2 0x1BB JUMP JUMPDEST PUSH1 0x40 MLOAD PUSH2 0xB8 SWAP2 SWAP1 PUSH2 0x50F JUMP JUMPDEST PUSH1 0x40 MLOAD DUP1 SWAP2 SUB SWAP1 RETURN JUMPDEST PUSH2 0xC9 PUSH2 0x1C1 JUMP JUMPDEST PUSH1 0x40 MLOAD PUSH2 0xD6 SWAP2 SWAP1 PUSH2 0x545 JUMP JUMPDEST PUSH1 0x40 MLOAD DUP1 SWAP2 SUB SWAP1 RETURN JUMPDEST PUSH2 0xE7 PUSH2 0x25F JUMP JUMPDEST PUSH1 0x40 MLOAD PUSH2 0xF4 SWAP2 SWAP1 PUSH2 0x52A JUMP JUMPDEST PUSH1 0x40 MLOAD DUP1 SWAP2 SUB SWAP1 RETURN JUMPDEST PUSH2 0x105 PUSH2 0x272 JUMP JUMPDEST PUSH1 0x40 MLOAD PUSH2 0x112 SWAP2 SWAP1 PUSH2 0x4F4 JUMP JUMPDEST PUSH1 0x40 MLOAD DUP1 SWAP2 SUB SWAP1 RETURN JUMPDEST PUSH2 0x123 PUSH2 0x285 JUMP JUMPDEST PUSH1 0x40 MLOAD PUSH2 0x130 SWAP2 SWAP1 PUSH2 0x4D9 JUMP JUMPDEST PUSH1 0x40 MLOAD DUP1 SWAP2 SUB SWAP1 RETURN JUMPDEST PUSH2 0x141 PUSH2 0x2AB JUMP JUMPDEST PUSH1 0x40 MLOAD PUSH2 0x14E SWAP2 SWAP1 PUSH2 0x4F4 JUMP JUMPDEST PUSH1 0x40 MLOAD DUP1 SWAP2 SUB SWAP1 RETURN JUMPDEST PUSH2 0x15F PUSH2 0x2BE JUMP JUMPDEST STOP JUMPDEST PUSH2 0x169 PUSH2 0x302 JUMP JUMPDEST PUSH1 0x40 MLOAD PUSH2 0x176 SWAP2 SWAP1 PUSH2 0x4D9 JUMP JUMPDEST PUSH1 0x40 MLOAD DUP1 SWAP2 SUB SWAP1 RETURN JUMPDEST PUSH2 0x187 PUSH2 0x328 JUMP JUMPDEST PUSH1 0x40 MLOAD PUSH2 0x194 SWAP2 SWAP1 PUSH2 0x545 JUMP JUMPDEST PUSH1 0x40 MLOAD DUP1 SWAP2 SUB SWAP1 RETURN JUMPDEST PUSH2 0x1A5 PUSH2 0x3C6 JUMP JUMPDEST PUSH1 0x40 MLOAD PUSH2 0x1B2 SWAP2 SWAP1 PUSH2 0x545 JUMP JUMPDEST PUSH1 0x40 MLOAD DUP1 SWAP2 SUB SWAP1 RETURN JUMPDEST PUSH1 0x7 SLOAD DUP2 JUMP JUMPDEST PUSH1 0x1 DUP1 SLOAD PUSH1 0x1 DUP2 PUSH1 0x1 AND ISZERO PUSH2 0x100 MUL SUB AND PUSH1 0x2 SWAP1 DIV DUP1 PUSH1 0x1F ADD PUSH1 0x20 DUP1 SWAP2 DIV MUL PUSH1 0x20 ADD PUSH1 0x40 MLOAD SWAP1 DUP2 ADD PUSH1 0x40 MSTORE DUP1 SWAP3 SWAP2 SWAP1 DUP2 DUP2 MSTORE PUSH1 0x20 ADD DUP3 DUP1 SLOAD PUSH1 0x1 DUP2 PUSH1 0x1 AND ISZERO PUSH2 0x100 MUL SUB AND PUSH1 0x2 SWAP1 DIV DUP1 ISZERO PUSH2 0x257 JUMPI DUP1 PUSH1 0x1F LT PUSH2 0x22C JUMPI PUSH2 0x100 DUP1 DUP4 SLOAD DIV MUL DUP4 MSTORE SWAP2 PUSH1 0x20 ADD SWAP2 PUSH2 0x257 JUMP JUMPDEST DUP3 ADD SWAP2 SWAP1 PUSH1 0x0 MSTORE PUSH1 0x20 PUSH1 0x0 KECCAK256 SWAP1 JUMPDEST DUP2 SLOAD DUP2 MSTORE SWAP1 PUSH1 0x1 ADD SWAP1 PUSH1 0x20 ADD DUP1 DUP4 GT PUSH2 0x23A JUMPI DUP3 SWAP1 SUB PUSH1 0x1F AND DUP3 ADD SWAP2 JUMPDEST POP POP POP POP POP DUP2 JUMP JUMPDEST PUSH1 0x8 PUSH1 0x0 SWAP1 SLOAD SWAP1 PUSH2 0x100 EXP SWAP1 DIV PUSH1 0xE0 SHL DUP2 JUMP JUMPDEST PUSH1 0x3 PUSH1 0x1 SWAP1 SLOAD SWAP1 PUSH2 0x100 EXP SWAP1 DIV PUSH1 0xFF AND DUP2 JUMP JUMPDEST PUSH1 0x9 PUSH1 0x0 SWAP1 SLOAD SWAP1 PUSH2 0x100 EXP SWAP1 DIV PUSH20 0xFFFFFFFFFFFFFFFFFFFFFFFFFFFFFFFFFFFFFFFF AND DUP2 JUMP JUMPDEST PUSH1 0x3 PUSH1 0x2 SWAP1 SLOAD SWAP1 PUSH2 0x100 EXP SWAP1 DIV PUSH1 0xFF AND DUP2 JUMP JUMPDEST PUSH1 0x0 CALLDATALOAD PUSH32 0xFFFFFFFF00000000000000000000000000000000000000000000000000000000 AND PUSH1 0x8 PUSH1 0x0 PUSH2 0x100 EXP DUP2 SLOAD DUP2 PUSH4 0xFFFFFFFF MUL NOT AND SWAP1 DUP4 PUSH1 0xE0 SHR MUL OR SWAP1 SSTORE POP JUMP JUMPDEST PUSH1 0xA PUSH1 0x0 SWAP1 SLOAD SWAP1 PUSH2 0x100 EXP SWAP1 DIV PUSH20 0xFFFFFFFFFFFFFFFFFFFFFFFFFFFFFFFFFFFFFFFF AND DUP2 JUMP JUMPDEST PUSH1 0x6 DUP1 SLOAD PUSH1 0x1 DUP2 PUSH1 0x1 AND ISZERO PUSH2 0x100 MUL SUB AND PUSH1 0x2 SWAP1 DIV DUP1 PUSH1 0x1F ADD PUSH1 0x20 DUP1 SWAP2 DIV MUL PUSH1 0x20 ADD PUSH1 0x40 MLOAD SWAP1 DUP2 ADD PUSH1 0x40 MSTORE DUP1 SWAP3 SWAP2 SWAP1 DUP2 DUP2 MSTORE PUSH1 0x20 ADD DUP3 DUP1 SLOAD PUSH1 0x1 DUP2 PUSH1 0x1 AND ISZERO PUSH2 0x100 MUL SUB AND PUSH1 0x2 SWAP1 DIV DUP1 ISZERO PUSH2 0x3BE JUMPI DUP1 PUSH1 0x1F LT PUSH2 0x393 JUMPI PUSH2 0x100 DUP1 DUP4 SLOAD DIV MUL DUP4 MSTORE SWAP2 PUSH1 0x20 ADD SWAP2 PUSH2 0x3BE JUMP JUMPDEST DUP3 ADD SWAP2 SWAP1 PUSH1 0x0 MSTORE PUSH1 0x20 PUSH1 0x0 KECCAK256 SWAP1 JUMPDEST DUP2 SLOAD DUP2 MSTORE SWAP1 PUSH1 0x1 ADD SWAP1 PUSH1 0x20 ADD DUP1 DUP4 GT PUSH2 0x3A1 JUMPI DUP3 SWAP1 SUB PUSH1 0x1F AND DUP3 ADD SWAP2 JUMPDEST POP POP POP POP POP DUP2 JUMP JUMPDEST PUSH1 0x2 DUP1 SLOAD PUSH1 0x1 DUP2 PUSH1 0x1 AND ISZERO PUSH2 0x100 MUL SUB AND PUSH1 0x2 SWAP1 DIV DUP1 PUSH1 0x1F ADD PUSH1 0x20 DUP1 SWAP2 DIV MUL PUSH1 0x20 ADD PUSH1 0x40 MLOAD SWAP1 DUP2 ADD PUSH1 0x40 MSTORE DUP1 SWAP3 SWAP2 SWAP1 DUP2 DUP2 MSTORE PUSH1 0x20 ADD DUP3 DUP1 SLOAD PUSH1 0x1 DUP2 PUSH1 0x1 AND ISZERO PUSH2 0x100 MUL SUB AND PUSH1 0x2 SWAP1 DIV DUP1 ISZERO PUSH2 0x45C JUMPI DUP1 PUSH1 0x1F LT PUSH2 0x431 JUMPI PUSH2 0x100 DUP1 DUP4 SLOAD DIV MUL DUP4 MSTORE SWAP2 PUSH1 0x20 ADD SWAP2 PUSH2 0x45C JUMP JUMPDEST DUP3 ADD SWAP2 SWAP1 PUSH1 0x0 MSTORE PUSH1 0x20 PUSH1 0x0 KECCAK256 SWAP1 JUMPDEST DUP2 SLOAD DUP2 MSTORE SWAP1 PUSH1 0x1 ADD SWAP1 PUSH1 0x20 ADD DUP1 DUP4 GT PUSH2 0x43F JUMPI DUP3 SWAP1 SUB PUSH1 0x1F AND DUP3 ADD SWAP2 JUMPDEST POP POP POP POP POP DUP2 JUMP JUMPDEST PUSH2 0x46D DUP2 PUSH2 0x583 JUMP JUMPDEST DUP3 MSTORE POP POP JUMP JUMPDEST PUSH2 0x47C DUP2 PUSH2 0x595 JUMP JUMPDEST DUP3 MSTORE POP POP JUMP JUMPDEST PUSH2 0x48B DUP2 PUSH2 0x5A1 JUMP JUMPDEST DUP3 MSTORE POP POP JUMP JUMPDEST PUSH2 0x49A DUP2 PUSH2 0x5AB JUMP JUMPDEST DUP3 MSTORE POP POP JUMP JUMPDEST PUSH1 0x0 PUSH2 0x4AB DUP3 PUSH2 0x567 JUMP JUMPDEST PUSH2 0x4B5 DUP2 DUP6 PUSH2 0x572 JUMP JUMPDEST SWAP4 POP PUSH2 0x4C5 DUP2 DUP6 PUSH1 0x20 DUP7 ADD PUSH2 0x5F7 JUMP JUMPDEST PUSH2 0x4CE DUP2 PUSH2 0x62A JUMP JUMPDEST DUP5 ADD SWAP2 POP POP SWAP3 SWAP2 POP POP JUMP JUMPDEST PUSH1 0x0 PUSH1 0x20 DUP3 ADD SWAP1 POP PUSH2 0x4EE PUSH1 0x0 DUP4 ADD DUP5 PUSH2 0x464 JUMP JUMPDEST SWAP3 SWAP2 POP POP JUMP JUMPDEST PUSH1 0x0 PUSH1 0x20 DUP3 ADD SWAP1 POP PUSH2 0x509 PUSH1 0x0 DUP4 ADD DUP5 PUSH2 0x473 JUMP JUMPDEST SWAP3 SWAP2 POP POP JUMP JUMPDEST PUSH1 0x0 PUSH1 0x20 DUP3 ADD SWAP1 POP PUSH2 0x524 PUSH1 0x0 DUP4 ADD DUP5 PUSH2 0x482 JUMP JUMPDEST SWAP3 SWAP2 POP POP JUMP JUMPDEST PUSH1 0x0 PUSH1 0x20 DUP3 ADD SWAP1 POP PUSH2 0x53F PUSH1 0x0 DUP4 ADD DUP5 PUSH2 0x491 JUMP JUMPDEST SWAP3 SWAP2 POP POP JUMP JUMPDEST PUSH1 0x0 PUSH1 0x20 DUP3 ADD SWAP1 POP DUP2 DUP2 SUB PUSH1 0x0 DUP4 ADD MSTORE PUSH2 0x55F DUP2 DUP5 PUSH2 0x4A0 JUMP JUMPDEST SWAP1 POP SWAP3 SWAP2 POP POP JUMP JUMPDEST PUSH1 0x0 DUP2 MLOAD SWAP1 POP SWAP2 SWAP1 POP JUMP JUMPDEST PUSH1 0x0 DUP3 DUP3 MSTORE PUSH1 0x20 DUP3 ADD SWAP1 POP SWAP3 SWAP2 POP POP JUMP JUMPDEST PUSH1 0x0 PUSH2 0x58E DUP3 PUSH2 0x5D7 JUMP JUMPDEST SWAP1 POP SWAP2 SWAP1 POP JUMP JUMPDEST PUSH1 0x0 DUP2 ISZERO ISZERO SWAP1 POP SWAP2 SWAP1 POP JUMP JUMPDEST PUSH1 0x0 DUP2 SWAP1 POP SWAP2 SWAP1 POP JUMP JUMPDEST PUSH1 0x0 PUSH32 0xFFFFFFFF00000000000000000000000000000000000000000000000000000000 DUP3 AND SWAP1 POP SWAP2 SWAP1 POP JUMP JUMPDEST PUSH1 0x0 PUSH20 0xFFFFFFFFFFFFFFFFFFFFFFFFFFFFFFFFFFFFFFFF DUP3 AND SWAP1 POP SWAP2 SWAP1 POP JUMP JUMPDEST PUSH1 0x0 JUMPDEST DUP4 DUP2 LT ISZERO PUSH2 0x615 JUMPI DUP1 DUP3 ADD MLOAD DUP2 DUP5 ADD MSTORE PUSH1 0x20 DUP2 ADD SWAP1 POP PUSH2 0x5FA JUMP JUMPDEST DUP4 DUP2 GT ISZERO PUSH2 0x624 JUMPI PUSH1 0x0 DUP5 DUP5 ADD MSTORE JUMPDEST POP POP POP POP JUMP JUMPDEST PUSH1 0x0 PUSH1 0x1F NOT PUSH1 0x1F DUP4 ADD AND SWAP1 POP SWAP2 SWAP1 POP JUMP INVALID LOG2 PUSH5 0x6970667358 0x22 SLT KECCAK256 NOT PUSH32 0xD7302FBAEBF0CB301E4B618398D2358215F644A2B42715660C1A682C94116473 PUSH16 0x6C634300060900330000000000000000 "
				},
				"gasEstimates": {
					"creation": {
						"codeDepositCost": "329800",
						"executionCost": "infinite",
						"totalCost": "infinite"
					},
					"external": {
						"direccion_local()": "1303",
						"direccion_local2()": "1258",
						"ejemploBytes4()": "21042",
						"flag_false()": "1221",
						"flag_true()": "1288",
						"hash()": "1130",
						"identificador()": "1216",
						"nombre()": "infinite",
						"saludo()": "infinite",
						"string_vacio()": "infinite"
					}
				},
				"methodIdentifiers": {
					"direccion_local()": "519a2c1f",
					"direccion_local2()": "a3505b32",
					"ejemploBytes4()": "8320422e",
					"flag_false()": "5fe4c677",
					"flag_true()": "4ea35958",
					"hash()": "09bd5a60",
					"identificador()": "35a41acc",
					"nombre()": "bc7b35b2",
					"saludo()": "0a3a9d63",
					"string_vacio()": "e83ec4d2"
				}
			},
			"storageLayout": {
				"storage": [
					{
						"astId": 4,
						"contract": "BLOQUE 1 - Conceptos básicos de Solidity/Tema 3 - Tipos de variables y operadores/mas_variables.sol:mas_variables",
						"label": "mi_primer_string",
						"offset": 0,
						"slot": "0",
						"type": "t_string_storage"
					},
					{
						"astId": 7,
						"contract": "BLOQUE 1 - Conceptos básicos de Solidity/Tema 3 - Tipos de variables y operadores/mas_variables.sol:mas_variables",
						"label": "saludo",
						"offset": 0,
						"slot": "1",
						"type": "t_string_storage"
					},
					{
						"astId": 10,
						"contract": "BLOQUE 1 - Conceptos básicos de Solidity/Tema 3 - Tipos de variables y operadores/mas_variables.sol:mas_variables",
						"label": "string_vacio",
						"offset": 0,
						"slot": "2",
						"type": "t_string_storage"
					},
					{
						"astId": 12,
						"contract": "BLOQUE 1 - Conceptos básicos de Solidity/Tema 3 - Tipos de variables y operadores/mas_variables.sol:mas_variables",
						"label": "mi_primer_booleano",
						"offset": 0,
						"slot": "3",
						"type": "t_bool"
					},
					{
						"astId": 15,
						"contract": "BLOQUE 1 - Conceptos básicos de Solidity/Tema 3 - Tipos de variables y operadores/mas_variables.sol:mas_variables",
						"label": "flag_true",
						"offset": 1,
						"slot": "3",
						"type": "t_bool"
					},
					{
						"astId": 18,
						"contract": "BLOQUE 1 - Conceptos básicos de Solidity/Tema 3 - Tipos de variables y operadores/mas_variables.sol:mas_variables",
						"label": "flag_false",
						"offset": 2,
						"slot": "3",
						"type": "t_bool"
					},
					{
						"astId": 20,
						"contract": "BLOQUE 1 - Conceptos básicos de Solidity/Tema 3 - Tipos de variables y operadores/mas_variables.sol:mas_variables",
						"label": "mi_primer_bytes",
						"offset": 0,
						"slot": "4",
						"type": "t_bytes32"
					},
					{
						"astId": 22,
						"contract": "BLOQUE 1 - Conceptos básicos de Solidity/Tema 3 - Tipos de variables y operadores/mas_variables.sol:mas_variables",
						"label": "segundo_Bytes",
						"offset": 0,
						"slot": "5",
						"type": "t_bytes4"
					},
					{
						"astId": 25,
						"contract": "BLOQUE 1 - Conceptos básicos de Solidity/Tema 3 - Tipos de variables y operadores/mas_variables.sol:mas_variables",
						"label": "nombre",
						"offset": 0,
						"slot": "6",
						"type": "t_string_storage"
					},
					{
						"astId": 33,
						"contract": "BLOQUE 1 - Conceptos básicos de Solidity/Tema 3 - Tipos de variables y operadores/mas_variables.sol:mas_variables",
						"label": "hash",
						"offset": 0,
						"slot": "7",
						"type": "t_bytes32"
					},
					{
						"astId": 35,
						"contract": "BLOQUE 1 - Conceptos básicos de Solidity/Tema 3 - Tipos de variables y operadores/mas_variables.sol:mas_variables",
						"label": "identificador",
						"offset": 0,
						"slot": "8",
						"type": "t_bytes4"
					},
					{
						"astId": 46,
						"contract": "BLOQUE 1 - Conceptos básicos de Solidity/Tema 3 - Tipos de variables y operadores/mas_variables.sol:mas_variables",
						"label": "mi_primera_direccion",
						"offset": 4,
						"slot": "8",
						"type": "t_address"
					},
					{
						"astId": 49,
						"contract": "BLOQUE 1 - Conceptos básicos de Solidity/Tema 3 - Tipos de variables y operadores/mas_variables.sol:mas_variables",
						"label": "direccion_local",
						"offset": 0,
						"slot": "9",
						"type": "t_address"
					},
					{
						"astId": 52,
						"contract": "BLOQUE 1 - Conceptos básicos de Solidity/Tema 3 - Tipos de variables y operadores/mas_variables.sol:mas_variables",
						"label": "direccion_local2",
						"offset": 0,
						"slot": "10",
						"type": "t_address"
					}
				],
				"types": {
					"t_address": {
						"encoding": "inplace",
						"label": "address",
						"numberOfBytes": "20"
					},
					"t_bool": {
						"encoding": "inplace",
						"label": "bool",
						"numberOfBytes": "1"
					},
					"t_bytes32": {
						"encoding": "inplace",
						"label": "bytes32",
						"numberOfBytes": "32"
					},
					"t_bytes4": {
						"encoding": "inplace",
						"label": "bytes4",
						"numberOfBytes": "4"
					},
					"t_string_storage": {
						"encoding": "bytes",
						"label": "string",
						"numberOfBytes": "32"
					}
				}
			},
			"userdoc": {
				"methods": {}
			}
		}
	}
}